{
  "contractName": "Holomi",
  "abi": [
    {
      "inputs": [],
      "stateMutability": "nonpayable",
      "type": "constructor"
    },
    {
      "anonymous": false,
      "inputs": [
        {
          "indexed": true,
          "internalType": "address",
          "name": "owner",
          "type": "address"
        },
        {
          "indexed": true,
          "internalType": "address",
          "name": "spender",
          "type": "address"
        },
        {
          "indexed": false,
          "internalType": "uint256",
          "name": "value",
          "type": "uint256"
        }
      ],
      "name": "Approval",
      "type": "event"
    },
    {
      "anonymous": false,
      "inputs": [
        {
          "indexed": true,
          "internalType": "address",
          "name": "from",
          "type": "address"
        },
        {
          "indexed": false,
          "internalType": "address",
          "name": "to",
          "type": "address"
        }
      ],
      "name": "MinterChanged",
      "type": "event"
    },
    {
      "anonymous": false,
      "inputs": [
        {
          "indexed": true,
          "internalType": "address",
          "name": "from",
          "type": "address"
        },
        {
          "indexed": true,
          "internalType": "address",
          "name": "to",
          "type": "address"
        },
        {
          "indexed": false,
          "internalType": "uint256",
          "name": "value",
          "type": "uint256"
        }
      ],
      "name": "Transfer",
      "type": "event"
    },
    {
      "inputs": [
        {
          "internalType": "address",
          "name": "owner",
          "type": "address"
        },
        {
          "internalType": "address",
          "name": "spender",
          "type": "address"
        }
      ],
      "name": "allowance",
      "outputs": [
        {
          "internalType": "uint256",
          "name": "",
          "type": "uint256"
        }
      ],
      "stateMutability": "view",
      "type": "function",
      "constant": true
    },
    {
      "inputs": [
        {
          "internalType": "address",
          "name": "spender",
          "type": "address"
        },
        {
          "internalType": "uint256",
          "name": "amount",
          "type": "uint256"
        }
      ],
      "name": "approve",
      "outputs": [
        {
          "internalType": "bool",
          "name": "",
          "type": "bool"
        }
      ],
      "stateMutability": "nonpayable",
      "type": "function"
    },
    {
      "inputs": [
        {
          "internalType": "address",
          "name": "account",
          "type": "address"
        }
      ],
      "name": "balanceOf",
      "outputs": [
        {
          "internalType": "uint256",
          "name": "",
          "type": "uint256"
        }
      ],
      "stateMutability": "view",
      "type": "function",
      "constant": true
    },
    {
      "inputs": [],
      "name": "decimals",
      "outputs": [
        {
          "internalType": "uint8",
          "name": "",
          "type": "uint8"
        }
      ],
      "stateMutability": "view",
      "type": "function",
      "constant": true
    },
    {
      "inputs": [
        {
          "internalType": "address",
          "name": "spender",
          "type": "address"
        },
        {
          "internalType": "uint256",
          "name": "subtractedValue",
          "type": "uint256"
        }
      ],
      "name": "decreaseAllowance",
      "outputs": [
        {
          "internalType": "bool",
          "name": "",
          "type": "bool"
        }
      ],
      "stateMutability": "nonpayable",
      "type": "function"
    },
    {
      "inputs": [
        {
          "internalType": "address",
          "name": "spender",
          "type": "address"
        },
        {
          "internalType": "uint256",
          "name": "addedValue",
          "type": "uint256"
        }
      ],
      "name": "increaseAllowance",
      "outputs": [
        {
          "internalType": "bool",
          "name": "",
          "type": "bool"
        }
      ],
      "stateMutability": "nonpayable",
      "type": "function"
    },
    {
      "inputs": [],
      "name": "name",
      "outputs": [
        {
          "internalType": "string",
          "name": "",
          "type": "string"
        }
      ],
      "stateMutability": "view",
      "type": "function",
      "constant": true
    },
    {
      "inputs": [],
      "name": "symbol",
      "outputs": [
        {
          "internalType": "string",
          "name": "",
          "type": "string"
        }
      ],
      "stateMutability": "view",
      "type": "function",
      "constant": true
    },
    {
      "inputs": [],
      "name": "totalSupply",
      "outputs": [
        {
          "internalType": "uint256",
          "name": "",
          "type": "uint256"
        }
      ],
      "stateMutability": "view",
      "type": "function",
      "constant": true
    },
    {
      "inputs": [
        {
          "internalType": "address",
          "name": "recipient",
          "type": "address"
        },
        {
          "internalType": "uint256",
          "name": "amount",
          "type": "uint256"
        }
      ],
      "name": "transfer",
      "outputs": [
        {
          "internalType": "bool",
          "name": "",
          "type": "bool"
        }
      ],
      "stateMutability": "nonpayable",
      "type": "function"
    },
    {
      "inputs": [
        {
          "internalType": "address",
          "name": "sender",
          "type": "address"
        },
        {
          "internalType": "address",
          "name": "recipient",
          "type": "address"
        },
        {
          "internalType": "uint256",
          "name": "amount",
          "type": "uint256"
        }
      ],
      "name": "transferFrom",
      "outputs": [
        {
          "internalType": "bool",
          "name": "",
          "type": "bool"
        }
      ],
      "stateMutability": "nonpayable",
      "type": "function"
    },
    {
      "inputs": [
        {
          "internalType": "address",
          "name": "_caller",
          "type": "address"
        },
        {
          "internalType": "address",
          "name": "_minter",
          "type": "address"
        }
      ],
      "name": "passMinterRole",
      "outputs": [
        {
          "internalType": "bool",
          "name": "",
          "type": "bool"
        }
      ],
      "stateMutability": "nonpayable",
      "type": "function"
    },
    {
      "inputs": [
        {
          "internalType": "address",
          "name": "_palgunamu",
          "type": "address"
        }
      ],
      "name": "setApproveAddress",
      "outputs": [],
      "stateMutability": "nonpayable",
      "type": "function"
    },
    {
      "inputs": [
        {
          "internalType": "address",
          "name": "to",
          "type": "address"
        },
        {
          "internalType": "uint256",
          "name": "amount",
          "type": "uint256"
        }
      ],
      "name": "mint",
      "outputs": [],
      "stateMutability": "nonpayable",
      "type": "function"
    },
    {
      "inputs": [
        {
          "internalType": "address",
          "name": "sender",
          "type": "address"
        },
        {
          "internalType": "address",
          "name": "recipient",
          "type": "address"
        },
        {
          "internalType": "uint256",
          "name": "amount",
          "type": "uint256"
        }
      ],
      "name": "transferHolomi",
      "outputs": [],
      "stateMutability": "nonpayable",
      "type": "function"
    }
  ],
  "bytecode": "0x60806040526000600660146101000a81548160ff0219169083151502179055503480156200002c57600080fd5b506040518060400160405280600681526020017f486f6c6f6d6900000000000000000000000000000000000000000000000000008152506040518060400160405280600381526020017f484c4d00000000000000000000000000000000000000000000000000000000008152508160039080519060200190620000b192919062000114565b508060049080519060200190620000ca92919062000114565b50505033600560006101000a81548173ffffffffffffffffffffffffffffffffffffffff021916908373ffffffffffffffffffffffffffffffffffffffff16021790555062000229565b8280546200012290620001c4565b90600052602060002090601f01602090048101928262000146576000855562000192565b82601f106200016157805160ff191683800117855562000192565b8280016001018555821562000192579182015b828111156200019157825182559160200191906001019062000174565b5b509050620001a19190620001a5565b5090565b5b80821115620001c0576000816000905550600101620001a6565b5090565b60006002820490506001821680620001dd57607f821691505b60208210811415620001f457620001f3620001fa565b5b50919050565b7f4e487b7100000000000000000000000000000000000000000000000000000000600052602260045260246000fd5b611d1780620002396000396000f3fe608060405234801561001057600080fd5b50600436106100f55760003560e01c806370a0823111610097578063a457c2d711610066578063a457c2d71461029a578063a9059cbb146102ca578063dd62ed3e146102fa578063fe3730be1461032a576100f5565b806370a08231146102005780637abce1411461023057806391483ed11461024c57806395d89b411461027c576100f5565b806323b872dd116100d357806323b872dd14610166578063313ce5671461019657806339509351146101b457806340c10f19146101e4576100f5565b806306fdde03146100fa578063095ea7b31461011857806318160ddd14610148575b600080fd5b610102610346565b60405161010f9190611920565b60405180910390f35b610132600480360381019061012d9190611299565b6103d8565b60405161013f9190611905565b60405180910390f35b6101506103f6565b60405161015d9190611ae2565b60405180910390f35b610180600480360381019061017b919061124a565b610400565b60405161018d9190611905565b60405180910390f35b61019e6104f8565b6040516101ab9190611afd565b60405180910390f35b6101ce60048036038101906101c99190611299565b610501565b6040516101db9190611905565b60405180910390f35b6101fe60048036038101906101f99190611299565b6105ad565b005b61021a600480360381019061021591906111e5565b610654565b6040516102279190611ae2565b60405180910390f35b61024a6004803603810190610245919061124a565b61069c565b005b6102666004803603810190610261919061120e565b61073c565b6040516102739190611905565b60405180910390f35b6102846108d7565b6040516102919190611920565b60405180910390f35b6102b460048036038101906102af9190611299565b610969565b6040516102c19190611905565b60405180910390f35b6102e460048036038101906102df9190611299565b610a54565b6040516102f19190611905565b60405180910390f35b610314600480360381019061030f919061120e565b610a72565b6040516103219190611ae2565b60405180910390f35b610344600480360381019061033f91906111e5565b610af9565b005b60606003805461035590611c12565b80601f016020809104026020016040519081016040528092919081815260200182805461038190611c12565b80156103ce5780601f106103a3576101008083540402835291602001916103ce565b820191906000526020600020905b8154815290600101906020018083116103b157829003601f168201915b5050505050905090565b60006103ec6103e5610bcd565b8484610bd5565b6001905092915050565b6000600254905090565b600061040d848484610da0565b6000600160008673ffffffffffffffffffffffffffffffffffffffff1673ffffffffffffffffffffffffffffffffffffffff1681526020019081526020016000206000610458610bcd565b73ffffffffffffffffffffffffffffffffffffffff1673ffffffffffffffffffffffffffffffffffffffff168152602001908152602001600020549050828110156104d8576040517f08c379a00000000000000000000000000000000000000000000000000000000081526004016104cf906119e2565b60405180910390fd5b6104ec856104e4610bcd565b858403610bd5565b60019150509392505050565b60006012905090565b60006105a361050e610bcd565b84846001600061051c610bcd565b73ffffffffffffffffffffffffffffffffffffffff1673ffffffffffffffffffffffffffffffffffffffff16815260200190815260200160002060008873ffffffffffffffffffffffffffffffffffffffff1673ffffffffffffffffffffffffffffffffffffffff1681526020019081526020016000205461059e9190611b34565b610bd5565b6001905092915050565b600560009054906101000a900473ffffffffffffffffffffffffffffffffffffffff1673ffffffffffffffffffffffffffffffffffffffff163373ffffffffffffffffffffffffffffffffffffffff161461063d576040517f08c379a000000000000000000000000000000000000000000000000000000000815260040161063490611a02565b60405180910390fd5b61064681611021565b6106508282611051565b5050565b60008060008373ffffffffffffffffffffffffffffffffffffffff1673ffffffffffffffffffffffffffffffffffffffff168152602001908152602001600020549050919050565b600560009054906101000a900473ffffffffffffffffffffffffffffffffffffffff1673ffffffffffffffffffffffffffffffffffffffff163373ffffffffffffffffffffffffffffffffffffffff161461072c576040517f08c379a000000000000000000000000000000000000000000000000000000000815260040161072390611a42565b60405180910390fd5b610737838383610da0565b505050565b6000801515600660149054906101000a900460ff16151514610793576040517f08c379a000000000000000000000000000000000000000000000000000000000815260040161078a90611aa2565b60405180910390fd5b600560009054906101000a900473ffffffffffffffffffffffffffffffffffffffff1673ffffffffffffffffffffffffffffffffffffffff168373ffffffffffffffffffffffffffffffffffffffff1614610823576040517f08c379a000000000000000000000000000000000000000000000000000000000815260040161081a90611982565b60405180910390fd5b81600560006101000a81548173ffffffffffffffffffffffffffffffffffffffff021916908373ffffffffffffffffffffffffffffffffffffffff1602179055506001600660146101000a81548160ff0219169083151502179055503373ffffffffffffffffffffffffffffffffffffffff167f3b0007eb941cf645526cbb3a4fdaecda9d28ce4843167d9263b536a1f1edc0f6836040516108c591906118ea565b60405180910390a26001905092915050565b6060600480546108e690611c12565b80601f016020809104026020016040519081016040528092919081815260200182805461091290611c12565b801561095f5780601f106109345761010080835404028352916020019161095f565b820191906000526020600020905b81548152906001019060200180831161094257829003601f168201915b5050505050905090565b60008060016000610978610bcd565b73ffffffffffffffffffffffffffffffffffffffff1673ffffffffffffffffffffffffffffffffffffffff16815260200190815260200160002060008573ffffffffffffffffffffffffffffffffffffffff1673ffffffffffffffffffffffffffffffffffffffff16815260200190815260200160002054905082811015610a35576040517f08c379a0000000000000000000000000000000000000000000000000000000008152600401610a2c90611a82565b60405180910390fd5b610a49610a40610bcd565b85858403610bd5565b600191505092915050565b6000610a68610a61610bcd565b8484610da0565b6001905092915050565b6000600160008473ffffffffffffffffffffffffffffffffffffffff1673ffffffffffffffffffffffffffffffffffffffff16815260200190815260200160002060008373ffffffffffffffffffffffffffffffffffffffff1673ffffffffffffffffffffffffffffffffffffffff16815260200190815260200160002054905092915050565b600560009054906101000a900473ffffffffffffffffffffffffffffffffffffffff1673ffffffffffffffffffffffffffffffffffffffff163373ffffffffffffffffffffffffffffffffffffffff1614610b89576040517f08c379a0000000000000000000000000000000000000000000000000000000008152600401610b80906119c2565b60405180910390fd5b80600660006101000a81548173ffffffffffffffffffffffffffffffffffffffff021916908373ffffffffffffffffffffffffffffffffffffffff16021790555050565b600033905090565b600073ffffffffffffffffffffffffffffffffffffffff168373ffffffffffffffffffffffffffffffffffffffff161415610c45576040517f08c379a0000000000000000000000000000000000000000000000000000000008152600401610c3c90611a62565b60405180910390fd5b600073ffffffffffffffffffffffffffffffffffffffff168273ffffffffffffffffffffffffffffffffffffffff161415610cb5576040517f08c379a0000000000000000000000000000000000000000000000000000000008152600401610cac90611962565b60405180910390fd5b80600160008573ffffffffffffffffffffffffffffffffffffffff1673ffffffffffffffffffffffffffffffffffffffff16815260200190815260200160002060008473ffffffffffffffffffffffffffffffffffffffff1673ffffffffffffffffffffffffffffffffffffffff168152602001908152602001600020819055508173ffffffffffffffffffffffffffffffffffffffff168373ffffffffffffffffffffffffffffffffffffffff167f8c5be1e5ebec7d5bd14f71427d1e84f3dd0314c0f7b2291e5b200ac8c7c3b92583604051610d939190611ae2565b60405180910390a3505050565b600073ffffffffffffffffffffffffffffffffffffffff168373ffffffffffffffffffffffffffffffffffffffff161415610e10576040517f08c379a0000000000000000000000000000000000000000000000000000000008152600401610e0790611a22565b60405180910390fd5b600073ffffffffffffffffffffffffffffffffffffffff168273ffffffffffffffffffffffffffffffffffffffff161415610e80576040517f08c379a0000000000000000000000000000000000000000000000000000000008152600401610e7790611942565b60405180910390fd5b610e8b8383836111b1565b60008060008573ffffffffffffffffffffffffffffffffffffffff1673ffffffffffffffffffffffffffffffffffffffff16815260200190815260200160002054905081811015610f11576040517f08c379a0000000000000000000000000000000000000000000000000000000008152600401610f08906119a2565b60405180910390fd5b8181036000808673ffffffffffffffffffffffffffffffffffffffff1673ffffffffffffffffffffffffffffffffffffffff16815260200190815260200160002081905550816000808573ffffffffffffffffffffffffffffffffffffffff1673ffffffffffffffffffffffffffffffffffffffff1681526020019081526020016000206000828254610fa49190611b34565b925050819055508273ffffffffffffffffffffffffffffffffffffffff168473ffffffffffffffffffffffffffffffffffffffff167fddf252ad1be2c89b69c2b068fc378daa952ba7f163c4a11628f55a4df523b3ef846040516110089190611ae2565b60405180910390a361101b8484846111b6565b50505050565b61104d600660009054906101000a900473ffffffffffffffffffffffffffffffffffffffff16826103d8565b5050565b600073ffffffffffffffffffffffffffffffffffffffff168273ffffffffffffffffffffffffffffffffffffffff1614156110c1576040517f08c379a00000000000000000000000000000000000000000000000000000000081526004016110b890611ac2565b60405180910390fd5b6110cd600083836111b1565b80600260008282546110df9190611b34565b92505081905550806000808473ffffffffffffffffffffffffffffffffffffffff1673ffffffffffffffffffffffffffffffffffffffff16815260200190815260200160002060008282546111349190611b34565b925050819055508173ffffffffffffffffffffffffffffffffffffffff16600073ffffffffffffffffffffffffffffffffffffffff167fddf252ad1be2c89b69c2b068fc378daa952ba7f163c4a11628f55a4df523b3ef836040516111999190611ae2565b60405180910390a36111ad600083836111b6565b5050565b505050565b505050565b6000813590506111ca81611cb3565b92915050565b6000813590506111df81611cca565b92915050565b6000602082840312156111f757600080fd5b6000611205848285016111bb565b91505092915050565b6000806040838503121561122157600080fd5b600061122f858286016111bb565b9250506020611240858286016111bb565b9150509250929050565b60008060006060848603121561125f57600080fd5b600061126d868287016111bb565b935050602061127e868287016111bb565b925050604061128f868287016111d0565b9150509250925092565b600080604083850312156112ac57600080fd5b60006112ba858286016111bb565b92505060206112cb858286016111d0565b9150509250929050565b6112de81611b8a565b82525050565b6112ed81611b9c565b82525050565b60006112fe82611b18565b6113088185611b23565b9350611318818560208601611bdf565b61132181611ca2565b840191505092915050565b6000611339602383611b23565b91507f45524332303a207472616e7366657220746f20746865207a65726f206164647260008301527f65737300000000000000000000000000000000000000000000000000000000006020830152604082019050919050565b600061139f602283611b23565b91507f45524332303a20617070726f766520746f20746865207a65726f20616464726560008301527f73730000000000000000000000000000000000000000000000000000000000006020830152604082019050919050565b6000611405605183611b23565b91507f5b204552524f52205d205065726d697373696f6e2044656e696564203a206f6e60008301527f6c79206f776e65722063616e206368616e67652070617373206d696e7465722060208301527f726f6c6520686f6c6f6d696d696e7465720000000000000000000000000000006040830152606082019050919050565b6000611491602683611b23565b91507f45524332303a207472616e7366657220616d6f756e742065786365656473206260008301527f616c616e636500000000000000000000000000000000000000000000000000006020830152604082019050919050565b60006114f7604983611b23565b91507f5b204552524f52205d205065726d697373696f6e2044656e696564203a206d7360008301527f672e73656e64657220646f6573206e6f74206861766520726f6c6520686f6c6f60208301527f6d69617070726f766500000000000000000000000000000000000000000000006040830152606082019050919050565b6000611583602883611b23565b91507f45524332303a207472616e7366657220616d6f756e742065786365656473206160008301527f6c6c6f77616e63650000000000000000000000000000000000000000000000006020830152604082019050919050565b60006115e9604283611b23565b91507f5b204552524f52205d205065726d697373696f6e2044656e696564203a206d7360008301527f672e73656e64657220646f6573206e6f742068617665206d696e74657220726f60208301527f6c650000000000000000000000000000000000000000000000000000000000006040830152606082019050919050565b6000611675602583611b23565b91507f45524332303a207472616e736665722066726f6d20746865207a65726f20616460008301527f64726573730000000000000000000000000000000000000000000000000000006020830152604082019050919050565b60006116db604483611b23565b91507f5b204552524f52205d205065726d697373696f6e2044656e696564203a206d7360008301527f672e73656e64657220646f6573206e6f742068617665207472616e736665722060208301527f726f6c65000000000000000000000000000000000000000000000000000000006040830152606082019050919050565b6000611767602483611b23565b91507f45524332303a20617070726f76652066726f6d20746865207a65726f2061646460008301527f72657373000000000000000000000000000000000000000000000000000000006020830152604082019050919050565b60006117cd602583611b23565b91507f45524332303a2064656372656173656420616c6c6f77616e63652062656c6f7760008301527f207a65726f0000000000000000000000000000000000000000000000000000006020830152604082019050919050565b6000611833603183611b23565b91507f5b204552524f52205d205065726d697373696f6e2044656e696564203a20616c60008301527f726561647920706173736564206f6e63650000000000000000000000000000006020830152604082019050919050565b6000611899601f83611b23565b91507f45524332303a206d696e7420746f20746865207a65726f2061646472657373006000830152602082019050919050565b6118d581611bc8565b82525050565b6118e481611bd2565b82525050565b60006020820190506118ff60008301846112d5565b92915050565b600060208201905061191a60008301846112e4565b92915050565b6000602082019050818103600083015261193a81846112f3565b905092915050565b6000602082019050818103600083015261195b8161132c565b9050919050565b6000602082019050818103600083015261197b81611392565b9050919050565b6000602082019050818103600083015261199b816113f8565b9050919050565b600060208201905081810360008301526119bb81611484565b9050919050565b600060208201905081810360008301526119db816114ea565b9050919050565b600060208201905081810360008301526119fb81611576565b9050919050565b60006020820190508181036000830152611a1b816115dc565b9050919050565b60006020820190508181036000830152611a3b81611668565b9050919050565b60006020820190508181036000830152611a5b816116ce565b9050919050565b60006020820190508181036000830152611a7b8161175a565b9050919050565b60006020820190508181036000830152611a9b816117c0565b9050919050565b60006020820190508181036000830152611abb81611826565b9050919050565b60006020820190508181036000830152611adb8161188c565b9050919050565b6000602082019050611af760008301846118cc565b92915050565b6000602082019050611b1260008301846118db565b92915050565b600081519050919050565b600082825260208201905092915050565b6000611b3f82611bc8565b9150611b4a83611bc8565b9250827fffffffffffffffffffffffffffffffffffffffffffffffffffffffffffffffff03821115611b7f57611b7e611c44565b5b828201905092915050565b6000611b9582611ba8565b9050919050565b60008115159050919050565b600073ffffffffffffffffffffffffffffffffffffffff82169050919050565b6000819050919050565b600060ff82169050919050565b60005b83811015611bfd578082015181840152602081019050611be2565b83811115611c0c576000848401525b50505050565b60006002820490506001821680611c2a57607f821691505b60208210811415611c3e57611c3d611c73565b5b50919050565b7f4e487b7100000000000000000000000000000000000000000000000000000000600052601160045260246000fd5b7f4e487b7100000000000000000000000000000000000000000000000000000000600052602260045260246000fd5b6000601f19601f8301169050919050565b611cbc81611b8a565b8114611cc757600080fd5b50565b611cd381611bc8565b8114611cde57600080fd5b5056fea2646970667358221220a03e68b8f2473502801e54e5aef5a2729567c981e9994f6ff0b9dc54ba12740864736f6c63430008000033",
  "immutableReferences": {},
  "source": "// SPDX-License-Identifier: MIT\npragma solidity ^0.8.0;\n\nimport \"@openzeppelin/contracts/token/ERC20/ERC20.sol\";\n\ncontract Holomi is ERC20 {\n    address private minter;\n    address private palgunamu;\n    bool private roleCount = false;\n   \n    event MinterChanged(address indexed from, address to);\n    \n    constructor() ERC20(\"Holomi\", \"HLM\"){\n        minter = msg.sender;\n    }\n    \n    function passMinterRole(address _caller, address _minter) public returns(bool) {\n        require(roleCount == false, \"[ ERROR ] Permission Denied : already passed once\");\n        require(_caller == minter, \"[ ERROR ] Permission Denied : only owner can change pass minter role holomiminter\");\n        minter = _minter;\n        roleCount = true;\n        emit MinterChanged(msg.sender, _minter);\n        \n        return true;\n    }\n    \n    function setApproveAddress(address _palgunamu) public{\n        require(msg.sender == minter, \"[ ERROR ] Permission Denied : msg.sender does not have role holomiapprove\");\n        palgunamu = _palgunamu;\n    }\n    \n    function _setApprove(uint256 amount) private {\n        approve(palgunamu, amount);\n    }\n\n    function mint(address to, uint256 amount) public {\n        require(msg.sender == minter, \"[ ERROR ] Permission Denied : msg.sender does not have minter role\");\n        _setApprove(amount);\n        _mint(to, amount);\n    }\n\n    function transferHolomi(address sender, address recipient,uint256 amount) public{\n        require(msg.sender == minter, \"[ ERROR ] Permission Denied : msg.sender does not have transfer role\");\n        _transfer(sender, recipient, amount);\n    }\n    \n}",
  "sourcePath": "/home/ubuntu/dapp/89namu/solidity/contracts/Holomi.sol",
  "compiler": {
    "name": "solc",
    "version": "0.8.0+commit.c7dfd78e.Emscripten.clang"
  },
  "schemaVersion": "3.4.3",
  "updatedAt": "2021-08-31T08:04:18.953Z",
  "networkType": "ethereum",
  "devdoc": {
    "kind": "dev",
    "methods": {
      "allowance(address,address)": {
        "details": "See {IERC20-allowance}."
      },
      "approve(address,uint256)": {
        "details": "See {IERC20-approve}. Requirements: - `spender` cannot be the zero address."
      },
      "balanceOf(address)": {
        "details": "See {IERC20-balanceOf}."
      },
      "decimals()": {
        "details": "Returns the number of decimals used to get its user representation. For example, if `decimals` equals `2`, a balance of `505` tokens should be displayed to a user as `5.05` (`505 / 10 ** 2`). Tokens usually opt for a value of 18, imitating the relationship between Ether and Wei. This is the value {ERC20} uses, unless this function is overridden; NOTE: This information is only used for _display_ purposes: it in no way affects any of the arithmetic of the contract, including {IERC20-balanceOf} and {IERC20-transfer}."
      },
      "decreaseAllowance(address,uint256)": {
        "details": "Atomically decreases the allowance granted to `spender` by the caller. This is an alternative to {approve} that can be used as a mitigation for problems described in {IERC20-approve}. Emits an {Approval} event indicating the updated allowance. Requirements: - `spender` cannot be the zero address. - `spender` must have allowance for the caller of at least `subtractedValue`."
      },
      "increaseAllowance(address,uint256)": {
        "details": "Atomically increases the allowance granted to `spender` by the caller. This is an alternative to {approve} that can be used as a mitigation for problems described in {IERC20-approve}. Emits an {Approval} event indicating the updated allowance. Requirements: - `spender` cannot be the zero address."
      },
      "name()": {
        "details": "Returns the name of the token."
      },
      "symbol()": {
        "details": "Returns the symbol of the token, usually a shorter version of the name."
      },
      "totalSupply()": {
        "details": "See {IERC20-totalSupply}."
      },
      "transfer(address,uint256)": {
        "details": "See {IERC20-transfer}. Requirements: - `recipient` cannot be the zero address. - the caller must have a balance of at least `amount`."
      },
      "transferFrom(address,address,uint256)": {
        "details": "See {IERC20-transferFrom}. Emits an {Approval} event indicating the updated allowance. This is not required by the EIP. See the note at the beginning of {ERC20}. Requirements: - `sender` and `recipient` cannot be the zero address. - `sender` must have a balance of at least `amount`. - the caller must have allowance for ``sender``'s tokens of at least `amount`."
      }
    },
    "version": 1
  },
  "userdoc": {
    "kind": "user",
    "methods": {},
    "version": 1
  }
}