{
  "contractName": "PalguNamu",
  "abi": [
    {
      "inputs": [
        {
          "internalType": "address",
          "name": "_holomiaddress",
          "type": "address"
        },
        {
          "internalType": "address",
          "name": "_treeFactory",
          "type": "address"
        }
      ],
      "stateMutability": "nonpayable",
      "type": "constructor"
    },
    {
      "anonymous": false,
      "inputs": [
        {
          "indexed": true,
          "internalType": "address",
          "name": "user",
          "type": "address"
        },
        {
          "indexed": false,
          "internalType": "uint256",
          "name": "etherAmount",
          "type": "uint256"
        },
        {
          "indexed": false,
          "internalType": "uint256",
          "name": "buyTime",
          "type": "uint256"
        },
        {
          "indexed": false,
          "internalType": "uint256",
          "name": "tokenAmount",
          "type": "uint256"
        }
      ],
      "name": "BuyToken",
      "type": "event"
    },
    {
      "anonymous": false,
      "inputs": [
        {
          "indexed": true,
          "internalType": "address",
          "name": "buyer",
          "type": "address"
        },
        {
          "indexed": false,
          "internalType": "string",
          "name": "productName",
          "type": "string"
        },
        {
          "indexed": false,
          "internalType": "uint256",
          "name": "amount",
          "type": "uint256"
        }
      ],
      "name": "Buying",
      "type": "event"
    },
    {
      "anonymous": false,
      "inputs": [
        {
          "indexed": true,
          "internalType": "address",
          "name": "user",
          "type": "address"
        },
        {
          "indexed": false,
          "internalType": "uint256",
          "name": "etherAmount",
          "type": "uint256"
        },
        {
          "indexed": false,
          "internalType": "uint256",
          "name": "cancelStart",
          "type": "uint256"
        }
      ],
      "name": "CancellationDeposit",
      "type": "event"
    },
    {
      "anonymous": false,
      "inputs": [
        {
          "indexed": true,
          "internalType": "address",
          "name": "user",
          "type": "address"
        },
        {
          "indexed": false,
          "internalType": "uint256",
          "name": "etherAmount",
          "type": "uint256"
        },
        {
          "indexed": false,
          "internalType": "uint256",
          "name": "timeStart",
          "type": "uint256"
        },
        {
          "indexed": false,
          "internalType": "uint256",
          "name": "depositPeriod",
          "type": "uint256"
        }
      ],
      "name": "Deposit",
      "type": "event"
    },
    {
      "anonymous": false,
      "inputs": [
        {
          "indexed": true,
          "internalType": "uint256",
          "name": "tokenId",
          "type": "uint256"
        },
        {
          "indexed": false,
          "internalType": "address",
          "name": "buyer",
          "type": "address"
        }
      ],
      "name": "SwapHTR",
      "type": "event"
    },
    {
      "anonymous": false,
      "inputs": [
        {
          "indexed": true,
          "internalType": "address",
          "name": "user",
          "type": "address"
        },
        {
          "indexed": false,
          "internalType": "uint256",
          "name": "etherAmount",
          "type": "uint256"
        },
        {
          "indexed": false,
          "internalType": "uint256",
          "name": "fee",
          "type": "uint256"
        },
        {
          "indexed": false,
          "internalType": "uint256",
          "name": "interest",
          "type": "uint256"
        }
      ],
      "name": "Withdraw",
      "type": "event"
    },
    {
      "inputs": [
        {
          "internalType": "address",
          "name": "",
          "type": "address"
        }
      ],
      "name": "depositMinutes",
      "outputs": [
        {
          "internalType": "uint256",
          "name": "",
          "type": "uint256"
        }
      ],
      "stateMutability": "view",
      "type": "function",
      "constant": true
    },
    {
      "inputs": [
        {
          "internalType": "address",
          "name": "",
          "type": "address"
        }
      ],
      "name": "depositStart",
      "outputs": [
        {
          "internalType": "uint256",
          "name": "",
          "type": "uint256"
        }
      ],
      "stateMutability": "view",
      "type": "function",
      "constant": true
    },
    {
      "inputs": [
        {
          "internalType": "address",
          "name": "",
          "type": "address"
        }
      ],
      "name": "etherBalanceOf",
      "outputs": [
        {
          "internalType": "uint256",
          "name": "",
          "type": "uint256"
        }
      ],
      "stateMutability": "view",
      "type": "function",
      "constant": true
    },
    {
      "inputs": [
        {
          "internalType": "address",
          "name": "",
          "type": "address"
        }
      ],
      "name": "isDeposited",
      "outputs": [
        {
          "internalType": "bool",
          "name": "",
          "type": "bool"
        }
      ],
      "stateMutability": "view",
      "type": "function",
      "constant": true
    },
    {
      "inputs": [
        {
          "internalType": "address",
          "name": "",
          "type": "address"
        }
      ],
      "name": "totalPeriod",
      "outputs": [
        {
          "internalType": "uint256",
          "name": "",
          "type": "uint256"
        }
      ],
      "stateMutability": "view",
      "type": "function",
      "constant": true
    },
    {
      "inputs": [
        {
          "internalType": "address",
          "name": "_account",
          "type": "address"
        }
      ],
      "name": "setAccount",
      "outputs": [],
      "stateMutability": "nonpayable",
      "type": "function"
    },
    {
      "inputs": [
        {
          "internalType": "address",
          "name": "_setAddress",
          "type": "address"
        }
      ],
      "name": "setApproveToken",
      "outputs": [],
      "stateMutability": "nonpayable",
      "type": "function"
    },
    {
      "inputs": [
        {
          "internalType": "string",
          "name": "_productName",
          "type": "string"
        },
        {
          "internalType": "uint256",
          "name": "_amount",
          "type": "uint256"
        }
      ],
      "name": "buying",
      "outputs": [],
      "stateMutability": "payable",
      "type": "function",
      "payable": true
    },
    {
      "inputs": [
        {
          "internalType": "uint256",
          "name": "_minutes",
          "type": "uint256"
        }
      ],
      "name": "deposit",
      "outputs": [],
      "stateMutability": "payable",
      "type": "function",
      "payable": true
    },
    {
      "inputs": [],
      "name": "withdraw",
      "outputs": [],
      "stateMutability": "nonpayable",
      "type": "function"
    },
    {
      "inputs": [],
      "name": "buyToken",
      "outputs": [],
      "stateMutability": "payable",
      "type": "function",
      "payable": true
    },
    {
      "inputs": [],
      "name": "cancellationDeposit",
      "outputs": [],
      "stateMutability": "nonpayable",
      "type": "function"
    },
    {
      "inputs": [
        {
          "internalType": "address",
          "name": "_account",
          "type": "address"
        }
      ],
      "name": "balanceOfHolomi",
      "outputs": [
        {
          "internalType": "uint256",
          "name": "",
          "type": "uint256"
        }
      ],
      "stateMutability": "view",
      "type": "function",
      "constant": true
    },
    {
      "inputs": [
        {
          "internalType": "uint256",
          "name": "_holomiAmount",
          "type": "uint256"
        },
        {
          "internalType": "uint256",
          "name": "_tokenId",
          "type": "uint256"
        }
      ],
      "name": "swap",
      "outputs": [],
      "stateMutability": "nonpayable",
      "type": "function"
    },
    {
      "inputs": [
        {
          "internalType": "uint256",
          "name": "_tokenId",
          "type": "uint256"
        }
      ],
      "name": "getHTR",
      "outputs": [
        {
          "internalType": "uint256",
          "name": "",
          "type": "uint256"
        },
        {
          "internalType": "address[]",
          "name": "",
          "type": "address[]"
        },
        {
          "internalType": "uint256",
          "name": "",
          "type": "uint256"
        },
        {
          "internalType": "uint256",
          "name": "",
          "type": "uint256"
        },
        {
          "internalType": "uint256",
          "name": "",
          "type": "uint256"
        },
        {
          "internalType": "string",
          "name": "",
          "type": "string"
        },
        {
          "internalType": "bool",
          "name": "",
          "type": "bool"
        }
      ],
      "stateMutability": "view",
      "type": "function",
      "constant": true
    }
  ],
  "bytecode": "0x6080604052733322af2dc6d49e5a502355bc8a813a1ab30c5aa96000806101000a81548173ffffffffffffffffffffffffffffffffffffffff021916908373ffffffffffffffffffffffffffffffffffffffff1602179055503480156200006557600080fd5b5060405162002b3138038062002b3183398181016040528101906200008b91906200016d565b33600360006101000a81548173ffffffffffffffffffffffffffffffffffffffff021916908373ffffffffffffffffffffffffffffffffffffffff16021790555081600260006101000a81548173ffffffffffffffffffffffffffffffffffffffff021916908373ffffffffffffffffffffffffffffffffffffffff16021790555080600160006101000a81548173ffffffffffffffffffffffffffffffffffffffff021916908373ffffffffffffffffffffffffffffffffffffffff1602179055505050620001fc565b6000815190506200016781620001e2565b92915050565b600080604083850312156200018157600080fd5b6000620001918582860162000156565b9250506020620001a48582860162000156565b9150509250929050565b6000620001bb82620001c2565b9050919050565b600073ffffffffffffffffffffffffffffffffffffffff82169050919050565b620001ed81620001ae565b8114620001f957600080fd5b50565b612925806200020c6000396000f3fe6080604052600436106100e85760003560e01c8063846492211161008a578063d96073cf11610059578063d96073cf146102de578063e87f229414610307578063fd4fcfcc14610323578063ff87930a1461034c576100e8565b8063846492211461023e578063a48217191461027b578063b6b55f2514610285578063ca6e0091146102a1576100e8565b806329f6d57c116100c657806329f6d57c1461017e5780633ccfd60b146101a75780636e1e4b7e146101be5780637373202414610201576100e8565b8063176b653b146100ed578063179fc99f1461012a5780631cb3c53f14610167575b600080fd5b3480156100f957600080fd5b50610114600480360381019061010f9190611cb1565b610389565b6040516101219190612434565b60405180910390f35b34801561013657600080fd5b50610151600480360381019061014c9190611cb1565b6103a1565b60405161015e9190612434565b60405180910390f35b34801561017357600080fd5b5061017c6103b9565b005b34801561018a57600080fd5b506101a560048036038101906101a09190611cb1565b6106cf565b005b3480156101b357600080fd5b506101bc6107a2565b005b3480156101ca57600080fd5b506101e560048036038101906101e09190611d57565b610d89565b6040516101f89796959493929190612478565b60405180910390f35b34801561020d57600080fd5b5061022860048036038101906102239190611cb1565b610e64565b60405161023591906122e9565b60405180910390f35b34801561024a57600080fd5b5061026560048036038101906102609190611cb1565b610e84565b6040516102729190612434565b60405180910390f35b610283610e9c565b005b61029f600480360381019061029a9190611d57565b61104e565b005b3480156102ad57600080fd5b506102c860048036038101906102c39190611cb1565b61139f565b6040516102d59190612434565b60405180910390f35b3480156102ea57600080fd5b5061030560048036038101906103009190611e77565b611458565b005b610321600480360381019061031c9190611d03565b6114fd565b005b34801561032f57600080fd5b5061034a60048036038101906103459190611cb1565b6116a2565b005b34801561035857600080fd5b50610373600480360381019061036e9190611cb1565b611977565b6040516103809190612434565b60405180910390f35b60086020528060005260406000206000915090505481565b60056020528060005260406000206000915090505481565b60011515600660003373ffffffffffffffffffffffffffffffffffffffff1673ffffffffffffffffffffffffffffffffffffffff16815260200190815260200160002060009054906101000a900460ff1615151461044c576040517f08c379a0000000000000000000000000000000000000000000000000000000008152600401610443906123b4565b60405180910390fd5b3373ffffffffffffffffffffffffffffffffffffffff166108fc600560003373ffffffffffffffffffffffffffffffffffffffff1673ffffffffffffffffffffffffffffffffffffffff168152602001908152602001600020549081150290604051600060405180830381858888f193505050501580156104d1573d6000803e3d6000fd5b506000600460003373ffffffffffffffffffffffffffffffffffffffff1673ffffffffffffffffffffffffffffffffffffffff168152602001908152602001600020819055506000600560003373ffffffffffffffffffffffffffffffffffffffff1673ffffffffffffffffffffffffffffffffffffffff168152602001908152602001600020819055506000600660003373ffffffffffffffffffffffffffffffffffffffff1673ffffffffffffffffffffffffffffffffffffffff16815260200190815260200160002060006101000a81548160ff0219169083151502179055506000600760003373ffffffffffffffffffffffffffffffffffffffff1673ffffffffffffffffffffffffffffffffffffffff168152602001908152602001600020819055506000600860003373ffffffffffffffffffffffffffffffffffffffff1673ffffffffffffffffffffffffffffffffffffffff168152602001908152602001600020819055503373ffffffffffffffffffffffffffffffffffffffff167f5397d8caff9fa6ab0653d3308f284aee3d3afd3f3a1fefd1e40927ad26e315e6600560003373ffffffffffffffffffffffffffffffffffffffff1673ffffffffffffffffffffffffffffffffffffffff16815260200190815260200160002054426040516106c59291906124f5565b60405180910390a2565b600360009054906101000a900473ffffffffffffffffffffffffffffffffffffffff1673ffffffffffffffffffffffffffffffffffffffff163373ffffffffffffffffffffffffffffffffffffffff161461075f576040517f08c379a000000000000000000000000000000000000000000000000000000000815260040161075690612394565b60405180910390fd5b806000806101000a81548173ffffffffffffffffffffffffffffffffffffffff021916908373ffffffffffffffffffffffffffffffffffffffff16021790555050565b60011515600660003373ffffffffffffffffffffffffffffffffffffffff1673ffffffffffffffffffffffffffffffffffffffff16815260200190815260200160002060009054906101000a900460ff16151514610835576040517f08c379a000000000000000000000000000000000000000000000000000000000815260040161082c90612354565b60405180910390fd5b603c600760003373ffffffffffffffffffffffffffffffffffffffff1673ffffffffffffffffffffffffffffffffffffffff1681526020019081526020016000205461088191906126be565b600460003373ffffffffffffffffffffffffffffffffffffffff1673ffffffffffffffffffffffffffffffffffffffff16815260200190815260200160002054426108cc9190612718565b101561090d576040517f08c379a000000000000000000000000000000000000000000000000000000000815260040161090490612374565b60405180910390fd5b60006001600760003373ffffffffffffffffffffffffffffffffffffffff1673ffffffffffffffffffffffffffffffffffffffff16815260200190815260200160002054141561096057600a90506109b7565b6003600760003373ffffffffffffffffffffffffffffffffffffffff1673ffffffffffffffffffffffffffffffffffffffff1681526020019081526020016000205414156109b157601e90506109b6565b603290505b5b6000603c600460003373ffffffffffffffffffffffffffffffffffffffff1673ffffffffffffffffffffffffffffffffffffffff1681526020019081526020016000205442610a069190612718565b610a10919061268d565b600560003373ffffffffffffffffffffffffffffffffffffffff1673ffffffffffffffffffffffffffffffffffffffff1681526020019081526020016000205483610a5b91906126be565b610a6591906126be565b90506000600560003373ffffffffffffffffffffffffffffffffffffffff1673ffffffffffffffffffffffffffffffffffffffff1681526020019081526020016000205490503373ffffffffffffffffffffffffffffffffffffffff166108fc600560003373ffffffffffffffffffffffffffffffffffffffff1673ffffffffffffffffffffffffffffffffffffffff168152602001908152602001600020549081150290604051600060405180830381858888f19350505050158015610b30573d6000803e3d6000fd5b506000600260009054906101000a900473ffffffffffffffffffffffffffffffffffffffff1690508073ffffffffffffffffffffffffffffffffffffffff166340c10f1933856040518363ffffffff1660e01b8152600401610b939291906122c0565b600060405180830381600087803b158015610bad57600080fd5b505af1158015610bc1573d6000803e3d6000fd5b505050506000600460003373ffffffffffffffffffffffffffffffffffffffff1673ffffffffffffffffffffffffffffffffffffffff168152602001908152602001600020819055506000600560003373ffffffffffffffffffffffffffffffffffffffff1673ffffffffffffffffffffffffffffffffffffffff168152602001908152602001600020819055506000600660003373ffffffffffffffffffffffffffffffffffffffff1673ffffffffffffffffffffffffffffffffffffffff16815260200190815260200160002060006101000a81548160ff0219169083151502179055506000600760003373ffffffffffffffffffffffffffffffffffffffff1673ffffffffffffffffffffffffffffffffffffffff168152602001908152602001600020819055506000600860003373ffffffffffffffffffffffffffffffffffffffff1673ffffffffffffffffffffffffffffffffffffffff168152602001908152602001600020819055503373ffffffffffffffffffffffffffffffffffffffff167f02f25270a4d87bea75db541cdfe559334a275b4a233520ed6c0a2429667cca94838686604051610d7b9392919061251e565b60405180910390a250505050565b6000606060008060006060600080600160009054906101000a900473ffffffffffffffffffffffffffffffffffffffff1690508073ffffffffffffffffffffffffffffffffffffffff16636e1e4b7e8a6040518263ffffffff1660e01b8152600401610df59190612434565b60006040518083038186803b158015610e0d57600080fd5b505afa158015610e21573d6000803e3d6000fd5b505050506040513d6000823e3d601f19601f82011682018060405250810190610e4a9190611da9565b975097509750975097509750975050919395979092949650565b60066020528060005260406000206000915054906101000a900460ff1681565b60076020528060005260406000206000915090505481565b662386f26fc10000341015610ee6576040517f08c379a0000000000000000000000000000000000000000000000000000000008152600401610edd90612334565b60405180910390fd5b6000600260009054906101000a900473ffffffffffffffffffffffffffffffffffffffff1690508073ffffffffffffffffffffffffffffffffffffffff166340c10f1933606434610f3791906126be565b6040518363ffffffff1660e01b8152600401610f549291906122c0565b600060405180830381600087803b158015610f6e57600080fd5b505af1158015610f82573d6000803e3d6000fd5b5050505060008054906101000a900473ffffffffffffffffffffffffffffffffffffffff1673ffffffffffffffffffffffffffffffffffffffff166108fc349081150290604051600060405180830381858888f19350505050158015610fec573d6000803e3d6000fd5b503373ffffffffffffffffffffffffffffffffffffffff167f047d414ddce29eba94711e9709b1446c3bb9339c2472cf6ff20610f80b186912344260643461103491906126be565b6040516110439392919061251e565b60405180910390a250565b60001515600660003373ffffffffffffffffffffffffffffffffffffffff1673ffffffffffffffffffffffffffffffffffffffff16815260200190815260200160002060009054906101000a900460ff161515146110e1576040517f08c379a00000000000000000000000000000000000000000000000000000000081526004016110d890612414565b60405180910390fd5b662386f26fc1000034101561112b576040517f08c379a000000000000000000000000000000000000000000000000000000000815260040161112290612334565b60405180910390fd5b34600560003373ffffffffffffffffffffffffffffffffffffffff1673ffffffffffffffffffffffffffffffffffffffff168152602001908152602001600020546111769190612637565b600560003373ffffffffffffffffffffffffffffffffffffffff1673ffffffffffffffffffffffffffffffffffffffff1681526020019081526020016000208190555042600460003373ffffffffffffffffffffffffffffffffffffffff1673ffffffffffffffffffffffffffffffffffffffff168152602001908152602001600020546112049190612637565b600460003373ffffffffffffffffffffffffffffffffffffffff1673ffffffffffffffffffffffffffffffffffffffff168152602001908152602001600020819055506000603c8261125691906126be565b9050600081426112669190612637565b905082600760003373ffffffffffffffffffffffffffffffffffffffff1673ffffffffffffffffffffffffffffffffffffffff1681526020019081526020016000208190555080600860003373ffffffffffffffffffffffffffffffffffffffff1673ffffffffffffffffffffffffffffffffffffffff168152602001908152602001600020819055506001600660003373ffffffffffffffffffffffffffffffffffffffff1673ffffffffffffffffffffffffffffffffffffffff16815260200190815260200160002060006101000a81548160ff0219169083151502179055503373ffffffffffffffffffffffffffffffffffffffff167f36af321ec8d3c75236829c5317affd40ddb308863a1236d2d277a4025cccee1e3442846040516113929392919061251e565b60405180910390a2505050565b600080600260009054906101000a900473ffffffffffffffffffffffffffffffffffffffff1690508073ffffffffffffffffffffffffffffffffffffffff166370a08231846040518263ffffffff1660e01b81526004016114009190612245565b60206040518083038186803b15801561141857600080fd5b505afa15801561142c573d6000803e3d6000fd5b505050506040513d601f19601f820116820180604052508101906114509190611d80565b915050919050565b60c8821461149b576040517f08c379a0000000000000000000000000000000000000000000000000000000008152600401611492906123f4565b60405180910390fd5b6114b7670de0b6b3a7640000836114b291906126be565b61198f565b6114c18133611a49565b807f3f150a3a173247fe06c63c5df3cc3a833d814eaca8663aa96dc40dd6cf729bd4336040516114f19190612245565b60405180910390a25050565b662386f26fc10000341015611547576040517f08c379a000000000000000000000000000000000000000000000000000000000815260040161153e906123d4565b60405180910390fd5b6000600260009054906101000a900473ffffffffffffffffffffffffffffffffffffffff1690508073ffffffffffffffffffffffffffffffffffffffff166340c10f1933600a3461159891906126be565b6040518363ffffffff1660e01b81526004016115b59291906122c0565b600060405180830381600087803b1580156115cf57600080fd5b505af11580156115e3573d6000803e3d6000fd5b5050505060008054906101000a900473ffffffffffffffffffffffffffffffffffffffff1673ffffffffffffffffffffffffffffffffffffffff166108fc349081150290604051600060405180830381858888f1935050505015801561164d573d6000803e3d6000fd5b503373ffffffffffffffffffffffffffffffffffffffff167ebfffed16ef78a7eb2084a7fb25b41a0576781baf62bd6f6cf8228a5eea49998484604051611695929190612304565b60405180910390a2505050565b600360009054906101000a900473ffffffffffffffffffffffffffffffffffffffff1673ffffffffffffffffffffffffffffffffffffffff163373ffffffffffffffffffffffffffffffffffffffff1614611732576040517f08c379a000000000000000000000000000000000000000000000000000000000815260040161172990612394565b60405180910390fd5b6000600260009054906101000a900473ffffffffffffffffffffffffffffffffffffffff1690506000600160009054906101000a900473ffffffffffffffffffffffffffffffffffffffff1690508173ffffffffffffffffffffffffffffffffffffffff166391483ed133856040518363ffffffff1660e01b81526004016117bb929190612260565b602060405180830381600087803b1580156117d557600080fd5b505af11580156117e9573d6000803e3d6000fd5b505050506040513d601f19601f8201168201806040525081019061180d9190611cda565b508173ffffffffffffffffffffffffffffffffffffffff1663fe3730be846040518263ffffffff1660e01b81526004016118479190612245565b600060405180830381600087803b15801561186157600080fd5b505af1158015611875573d6000803e3d6000fd5b505050508073ffffffffffffffffffffffffffffffffffffffff166391483ed133856040518363ffffffff1660e01b81526004016118b4929190612260565b602060405180830381600087803b1580156118ce57600080fd5b505af11580156118e2573d6000803e3d6000fd5b505050506040513d601f19601f820116820180604052508101906119069190611cda565b508073ffffffffffffffffffffffffffffffffffffffff1663fe3730be846040518263ffffffff1660e01b81526004016119409190612245565b600060405180830381600087803b15801561195a57600080fd5b505af115801561196e573d6000803e3d6000fd5b50505050505050565b60046020528060005260406000206000915090505481565b6000600260009054906101000a900473ffffffffffffffffffffffffffffffffffffffff1690508073ffffffffffffffffffffffffffffffffffffffff16637abce1413360008054906101000a900473ffffffffffffffffffffffffffffffffffffffff16856040518463ffffffff1660e01b8152600401611a1393929190612289565b600060405180830381600087803b158015611a2d57600080fd5b505af1158015611a41573d6000803e3d6000fd5b505050505050565b6000600160009054906101000a900473ffffffffffffffffffffffffffffffffffffffff1690508073ffffffffffffffffffffffffffffffffffffffff1663b63a1d7884846040518363ffffffff1660e01b8152600401611aab92919061244f565b600060405180830381600087803b158015611ac557600080fd5b505af1158015611ad9573d6000803e3d6000fd5b50505050505050565b6000611af5611af084612586565b612555565b90508083825260208201905082856020860282011115611b1457600080fd5b60005b85811015611b445781611b2a8882611bdf565b845260208401935060208301925050600181019050611b17565b5050509392505050565b6000611b61611b5c846125b2565b612555565b905082815260208101848484011115611b7957600080fd5b611b848482856127ca565b509392505050565b6000611b9f611b9a846125b2565b612555565b905082815260208101848484011115611bb757600080fd5b611bc28482856127d9565b509392505050565b600081359050611bd9816128aa565b92915050565b600081519050611bee816128aa565b92915050565b600082601f830112611c0557600080fd5b8151611c15848260208601611ae2565b91505092915050565b600081519050611c2d816128c1565b92915050565b600082601f830112611c4457600080fd5b8135611c54848260208601611b4e565b91505092915050565b600082601f830112611c6e57600080fd5b8151611c7e848260208601611b8c565b91505092915050565b600081359050611c96816128d8565b92915050565b600081519050611cab816128d8565b92915050565b600060208284031215611cc357600080fd5b6000611cd184828501611bca565b91505092915050565b600060208284031215611cec57600080fd5b6000611cfa84828501611c1e565b91505092915050565b60008060408385031215611d1657600080fd5b600083013567ffffffffffffffff811115611d3057600080fd5b611d3c85828601611c33565b9250506020611d4d85828601611c87565b9150509250929050565b600060208284031215611d6957600080fd5b6000611d7784828501611c87565b91505092915050565b600060208284031215611d9257600080fd5b6000611da084828501611c9c565b91505092915050565b600080600080600080600060e0888a031215611dc457600080fd5b6000611dd28a828b01611c9c565b975050602088015167ffffffffffffffff811115611def57600080fd5b611dfb8a828b01611bf4565b9650506040611e0c8a828b01611c9c565b9550506060611e1d8a828b01611c9c565b9450506080611e2e8a828b01611c9c565b93505060a088015167ffffffffffffffff811115611e4b57600080fd5b611e578a828b01611c5d565b92505060c0611e688a828b01611c1e565b91505092959891949750929550565b60008060408385031215611e8a57600080fd5b6000611e9885828601611c87565b9250506020611ea985828601611c87565b9150509250929050565b6000611ebf8383611eda565b60208301905092915050565b611ed481612794565b82525050565b611ee38161274c565b82525050565b611ef28161274c565b82525050565b6000611f03826125f2565b611f0d8185612615565b9350611f18836125e2565b8060005b83811015611f49578151611f308882611eb3565b9750611f3b83612608565b925050600181019050611f1c565b5085935050505092915050565b611f5f8161275e565b82525050565b6000611f70826125fd565b611f7a8185612626565b9350611f8a8185602086016127d9565b611f9381612899565b840191505092915050565b6000611fab602283612626565b91507f4572726f722c206465706f736974206d757374206265203e3d20302e3031204560008301527f54480000000000000000000000000000000000000000000000000000000000006020830152604082019050919050565b6000612011601a83612626565b91507f4572726f722c206e6f2070726576696f7573206465706f7369740000000000006000830152602082019050919050565b6000612051602383612626565b91507f4572726f722c20506c6561736520776169742061206c6974746c65206c6f6e6760008301527f65722e00000000000000000000000000000000000000000000000000000000006020830152604082019050919050565b60006120b7604483612626565b91507f5b204552524f52205d205065726d697373696f6e2044656e696564203a206f6e60008301527f6c79206f776e65722063616e206368616e67652070617373206d696e7465722060208301527f726f6c65000000000000000000000000000000000000000000000000000000006040830152606082019050919050565b6000612143601683612626565b91507f4572726f722c2049742069732064697361626c65642e000000000000000000006000830152602082019050919050565b6000612183601f83612626565b91507f5b204552524f52205d206d757374206265206f76657220302e303120455448006000830152602082019050919050565b60006121c3602083612626565b91507f5b204552524f52205d20486f6c6f6d69206d7573742062652032303020484c4d6000830152602082019050919050565b6000612203601d83612626565b91507f4572726f722c206465706f73697420616c7265616479206163746976650000006000830152602082019050919050565b61223f8161278a565b82525050565b600060208201905061225a6000830184611ee9565b92915050565b60006040820190506122756000830185611ee9565b6122826020830184611ee9565b9392505050565b600060608201905061229e6000830186611ee9565b6122ab6020830185611ecb565b6122b86040830184612236565b949350505050565b60006040820190506122d56000830185611ee9565b6122e26020830184612236565b9392505050565b60006020820190506122fe6000830184611f56565b92915050565b6000604082019050818103600083015261231e8185611f65565b905061232d6020830184612236565b9392505050565b6000602082019050818103600083015261234d81611f9e565b9050919050565b6000602082019050818103600083015261236d81612004565b9050919050565b6000602082019050818103600083015261238d81612044565b9050919050565b600060208201905081810360008301526123ad816120aa565b9050919050565b600060208201905081810360008301526123cd81612136565b9050919050565b600060208201905081810360008301526123ed81612176565b9050919050565b6000602082019050818103600083015261240d816121b6565b9050919050565b6000602082019050818103600083015261242d816121f6565b9050919050565b60006020820190506124496000830184612236565b92915050565b60006040820190506124646000830185612236565b6124716020830184611ee9565b9392505050565b600060e08201905061248d600083018a612236565b818103602083015261249f8189611ef8565b90506124ae6040830188612236565b6124bb6060830187612236565b6124c86080830186612236565b81810360a08301526124da8185611f65565b90506124e960c0830184611f56565b98975050505050505050565b600060408201905061250a6000830185612236565b6125176020830184612236565b9392505050565b60006060820190506125336000830186612236565b6125406020830185612236565b61254d6040830184612236565b949350505050565b6000604051905081810181811067ffffffffffffffff8211171561257c5761257b61286a565b5b8060405250919050565b600067ffffffffffffffff8211156125a1576125a061286a565b5b602082029050602081019050919050565b600067ffffffffffffffff8211156125cd576125cc61286a565b5b601f19601f8301169050602081019050919050565b6000819050602082019050919050565b600081519050919050565b600081519050919050565b6000602082019050919050565b600082825260208201905092915050565b600082825260208201905092915050565b60006126428261278a565b915061264d8361278a565b9250827fffffffffffffffffffffffffffffffffffffffffffffffffffffffffffffffff038211156126825761268161280c565b5b828201905092915050565b60006126988261278a565b91506126a38361278a565b9250826126b3576126b261283b565b5b828204905092915050565b60006126c98261278a565b91506126d48361278a565b9250817fffffffffffffffffffffffffffffffffffffffffffffffffffffffffffffffff048311821515161561270d5761270c61280c565b5b828202905092915050565b60006127238261278a565b915061272e8361278a565b9250828210156127415761274061280c565b5b828203905092915050565b60006127578261276a565b9050919050565b60008115159050919050565b600073ffffffffffffffffffffffffffffffffffffffff82169050919050565b6000819050919050565b600061279f826127a6565b9050919050565b60006127b1826127b8565b9050919050565b60006127c38261276a565b9050919050565b82818337600083830152505050565b60005b838110156127f75780820151818401526020810190506127dc565b83811115612806576000848401525b50505050565b7f4e487b7100000000000000000000000000000000000000000000000000000000600052601160045260246000fd5b7f4e487b7100000000000000000000000000000000000000000000000000000000600052601260045260246000fd5b7f4e487b7100000000000000000000000000000000000000000000000000000000600052604160045260246000fd5b6000601f19601f8301169050919050565b6128b38161274c565b81146128be57600080fd5b50565b6128ca8161275e565b81146128d557600080fd5b50565b6128e18161278a565b81146128ec57600080fd5b5056fea2646970667358221220d62916c6bccbeaf02529ee639013978031d97475e4a66e9cb947df70399699ee64736f6c63430008000033",
  "immutableReferences": {},
  "source": "// SPDX-License-Identifier: MIT\npragma solidity ^0.8.0;\n\nimport \"./Holomi.sol\";\nimport \"./TreeFactory.sol\";\n\ncontract PalguNamu {\n    address payable account = payable(0x3322aF2Dc6d49E5A502355BC8A813A1ab30C5Aa9);\n    address private treefactoryAddress;\n    address private holomiAddress;\n    address private owner;\n    \n    //  \n    mapping(address => uint) public depositStart;\n\n    // Ether balance mapping\n    mapping(address => uint) public etherBalanceOf;\n\n    //  bool\n    mapping(address => bool) public isDeposited;\n\n    // *   mapping (1, 3, 5);\n    mapping(address => uint) public depositMinutes;\n    \n    // *   \n    mapping(address => uint) public totalPeriod;\n\n\n    \n    event Buying(address indexed buyer, string productName, uint amount);\n   \n    event Deposit(address indexed user, uint etherAmount, uint timeStart, uint depositPeriod);\n    event Withdraw(address indexed user, uint etherAmount, uint fee, uint interest);\n    event BuyToken(address indexed user, uint etherAmount, uint buyTime, uint tokenAmount);\n    event CancellationDeposit(address indexed user, uint etherAmount, uint cancelStart);\n    \n    event SwapHTR(uint256 indexed tokenId, address buyer);\n\n    \n    constructor(address _holomiaddress,address _treeFactory){\n        owner = msg.sender;\n        holomiAddress = address(_holomiaddress);\n        treefactoryAddress = address(_treeFactory);\n    }\n\n    //    \n    function setAccount(address _account) public{\n        require(msg.sender == owner, \"[ ERROR ] Permission Denied : only owner can change pass minter role\");\n        account = payable(_account);\n    }\n    \n    // holomi treefactory approve \n    function setApproveToken(address _setAddress) public{\n        require(msg.sender == owner, \"[ ERROR ] Permission Denied : only owner can change pass minter role\");\n        Holomi _holomi = Holomi(holomiAddress);\n        TreeFactory _treeFactory = TreeFactory(treefactoryAddress);\n        _holomi.passMinterRole(msg.sender, _setAddress);\n        _holomi.setApproveAddress(_setAddress);\n        _treeFactory.passMinterRole(msg.sender, _setAddress);\n        _treeFactory.setApproveAddress(_setAddress);\n    }\n\n    function buying(string memory _productName, uint _amount) payable public {\n        // msg.value ::     wei (wei ETH )\n        require(msg.value >= 1e16, \"[ ERROR ] must be over 0.01 ETH\");\n        Holomi _holomi = Holomi(holomiAddress);\n        _holomi.mint(msg.sender, msg.value*10); //     (1 10)\n        account.transfer(msg.value);\n\n        emit Buying(msg.sender, _productName, _amount);\n    }\n\n    function deposit(uint _minutes) payable public {\n        require(isDeposited[msg.sender] == false, 'Error, deposit already active');\n        require(msg.value>=1e16, 'Error, deposit must be >= 0.01 ETH');\n        etherBalanceOf[msg.sender] = etherBalanceOf[msg.sender] + msg.value;\n        depositStart[msg.sender] = depositStart[msg.sender] + block.timestamp;\n\n        // *          mapping (   DB   )\n        uint periodSecond = _minutes * 60;\n        uint totalDeposit = block.timestamp + periodSecond;\n        depositMinutes[msg.sender] = _minutes;\n        totalPeriod[msg.sender] = totalDeposit;\n\n\n        isDeposited[msg.sender] = true; //activate deposit status\n        \n        emit Deposit(msg.sender, msg.value, block.timestamp, totalDeposit);\n    }\n\n    function withdraw() public {\n        \n        require(isDeposited[msg.sender]==true, 'Error, no previous deposit');\n        // * require       withdraw       Error\n        require(block.timestamp - depositStart[msg.sender] >=  depositMinutes[msg.sender] * 60 , \"Error, Please wait a little longer.\");\n\n        uint fee;\n        if(depositMinutes[msg.sender] == 1){\n        fee = 10;\n        }else if(depositMinutes[msg.sender] == 3){\n        fee = 30;\n        }else{\n        fee = 50;\n        }\n        uint interest = fee * etherBalanceOf[msg.sender] * ((block.timestamp - depositStart[msg.sender])/60);\n\n        uint userBalance = etherBalanceOf[msg.sender]; //for event\n\n        //send funds to user\n        payable(msg.sender).transfer(etherBalanceOf[msg.sender]); //eth back to user\n        Holomi _holomi = Holomi(holomiAddress);\n        _holomi.mint(msg.sender, interest); //interest to user\n\n        //reset depositer data\n        depositStart[msg.sender] = 0;\n        etherBalanceOf[msg.sender] = 0;\n        isDeposited[msg.sender] = false;\n        depositMinutes[msg.sender] = 0;\n        totalPeriod[msg.sender] = 0;\n\n        emit Withdraw(msg.sender, userBalance, fee, interest);\n    }\n\n    // 1ETH 100\n    //    ...?\n    function buyToken() payable public {\n        require(msg.value>=1e16, 'Error, deposit must be >= 0.01 ETH');\n        Holomi _holomi = Holomi(holomiAddress);\n        _holomi.mint(msg.sender, msg.value*100);\n        // transfer \n        //     default\n        account.transfer(msg.value);\n        \n        emit BuyToken(msg.sender, msg.value, block.timestamp, msg.value*100);\n    }\n\n  // Deposit \n    function cancellationDeposit() public{\n\n        require(isDeposited[msg.sender] == true, 'Error, It is disabled.');\n\n        payable(msg.sender).transfer(etherBalanceOf[msg.sender]); //eth back to user\n\n        depositStart[msg.sender] = 0;\n        etherBalanceOf[msg.sender] = 0;\n        isDeposited[msg.sender] = false;\n        depositMinutes[msg.sender] = 0;\n        totalPeriod[msg.sender] = 0;\n\n        emit CancellationDeposit(msg.sender,etherBalanceOf[msg.sender], block.timestamp);\n    }\n    \n    function balanceOfHolomi(address _account)view public returns(uint256){\n        Holomi _holomi = Holomi(holomiAddress);\n        return _holomi.balanceOf(_account);\n    }\n    \n    function swap(uint _holomiAmount, uint256 _tokenId) public{\n        require(_holomiAmount == 200 , \"[ ERROR ] Holomi must be 200 HLM\");\n        _transferHolo(_holomiAmount * 10 ** 18);\n        _transferHTR(_tokenId, msg.sender);\n        emit SwapHTR( _tokenId, msg.sender);\n    }\n    \n    function getHTR(uint _tokenId) public view returns(uint256, address[] memory, uint256, uint256, uint256, string memory, bool){\n        TreeFactory _treeFactory = TreeFactory(treefactoryAddress);\n        return _treeFactory.getHTR(_tokenId);\n    }\n    \n    function _transferHolo(uint _amount) private {\n        Holomi _holomi = Holomi(holomiAddress);\n        _holomi.transferHolomi(msg.sender ,account, _amount);\n    }\n    \n    function _transferHTR(uint256 tokenId_, address to_) private {\n        TreeFactory _treeFactory = TreeFactory(treefactoryAddress);\n        _treeFactory.transferHTR(tokenId_,to_);\n    }\n}",
  "sourcePath": "/home/ubuntu/dapp/89namu/solidity/contracts/PalguNamu.sol",
  "compiler": {
    "name": "solc",
    "version": "0.8.0+commit.c7dfd78e.Emscripten.clang"
  },
  "schemaVersion": "3.4.3",
  "updatedAt": "2021-08-31T08:04:18.995Z",
  "networkType": "ethereum",
  "devdoc": {
    "kind": "dev",
    "methods": {},
    "version": 1
  },
  "userdoc": {
    "kind": "user",
    "methods": {},
    "version": 1
  }
}