{
  "contractName": "TreeFactory",
  "abi": [
    {
      "inputs": [],
      "stateMutability": "nonpayable",
      "type": "constructor"
    },
    {
      "anonymous": false,
      "inputs": [
        {
          "indexed": true,
          "internalType": "address",
          "name": "owner",
          "type": "address"
        },
        {
          "indexed": true,
          "internalType": "address",
          "name": "approved",
          "type": "address"
        },
        {
          "indexed": true,
          "internalType": "uint256",
          "name": "tokenId",
          "type": "uint256"
        }
      ],
      "name": "Approval",
      "type": "event"
    },
    {
      "anonymous": false,
      "inputs": [
        {
          "indexed": true,
          "internalType": "address",
          "name": "owner",
          "type": "address"
        },
        {
          "indexed": true,
          "internalType": "address",
          "name": "operator",
          "type": "address"
        },
        {
          "indexed": false,
          "internalType": "bool",
          "name": "approved",
          "type": "bool"
        }
      ],
      "name": "ApprovalForAll",
      "type": "event"
    },
    {
      "anonymous": false,
      "inputs": [
        {
          "indexed": false,
          "internalType": "uint256",
          "name": "newItemId",
          "type": "uint256"
        },
        {
          "indexed": false,
          "internalType": "uint256",
          "name": "coordinateX",
          "type": "uint256"
        },
        {
          "indexed": false,
          "internalType": "uint256",
          "name": "coordinateY",
          "type": "uint256"
        },
        {
          "indexed": false,
          "internalType": "uint256",
          "name": "timestamp",
          "type": "uint256"
        },
        {
          "indexed": false,
          "internalType": "bool",
          "name": "buyable",
          "type": "bool"
        }
      ],
      "name": "CreatedHTR",
      "type": "event"
    },
    {
      "anonymous": false,
      "inputs": [
        {
          "indexed": true,
          "internalType": "address",
          "name": "from",
          "type": "address"
        },
        {
          "indexed": false,
          "internalType": "address",
          "name": "to",
          "type": "address"
        }
      ],
      "name": "MinterChanged",
      "type": "event"
    },
    {
      "anonymous": false,
      "inputs": [
        {
          "indexed": false,
          "internalType": "uint256",
          "name": "tokenId",
          "type": "uint256"
        },
        {
          "indexed": false,
          "internalType": "address",
          "name": "to",
          "type": "address"
        }
      ],
      "name": "SendedHTR",
      "type": "event"
    },
    {
      "anonymous": false,
      "inputs": [
        {
          "indexed": true,
          "internalType": "address",
          "name": "from",
          "type": "address"
        },
        {
          "indexed": true,
          "internalType": "address",
          "name": "to",
          "type": "address"
        },
        {
          "indexed": true,
          "internalType": "uint256",
          "name": "tokenId",
          "type": "uint256"
        }
      ],
      "name": "Transfer",
      "type": "event"
    },
    {
      "inputs": [
        {
          "internalType": "address",
          "name": "to",
          "type": "address"
        },
        {
          "internalType": "uint256",
          "name": "tokenId",
          "type": "uint256"
        }
      ],
      "name": "approve",
      "outputs": [],
      "stateMutability": "nonpayable",
      "type": "function"
    },
    {
      "inputs": [
        {
          "internalType": "address",
          "name": "owner",
          "type": "address"
        }
      ],
      "name": "balanceOf",
      "outputs": [
        {
          "internalType": "uint256",
          "name": "",
          "type": "uint256"
        }
      ],
      "stateMutability": "view",
      "type": "function",
      "constant": true
    },
    {
      "inputs": [
        {
          "internalType": "uint256",
          "name": "tokenId",
          "type": "uint256"
        }
      ],
      "name": "getApproved",
      "outputs": [
        {
          "internalType": "address",
          "name": "",
          "type": "address"
        }
      ],
      "stateMutability": "view",
      "type": "function",
      "constant": true
    },
    {
      "inputs": [
        {
          "internalType": "address",
          "name": "owner",
          "type": "address"
        },
        {
          "internalType": "address",
          "name": "operator",
          "type": "address"
        }
      ],
      "name": "isApprovedForAll",
      "outputs": [
        {
          "internalType": "bool",
          "name": "",
          "type": "bool"
        }
      ],
      "stateMutability": "view",
      "type": "function",
      "constant": true
    },
    {
      "inputs": [],
      "name": "name",
      "outputs": [
        {
          "internalType": "string",
          "name": "",
          "type": "string"
        }
      ],
      "stateMutability": "view",
      "type": "function",
      "constant": true
    },
    {
      "inputs": [
        {
          "internalType": "uint256",
          "name": "tokenId",
          "type": "uint256"
        }
      ],
      "name": "ownerOf",
      "outputs": [
        {
          "internalType": "address",
          "name": "",
          "type": "address"
        }
      ],
      "stateMutability": "view",
      "type": "function",
      "constant": true
    },
    {
      "inputs": [
        {
          "internalType": "address",
          "name": "from",
          "type": "address"
        },
        {
          "internalType": "address",
          "name": "to",
          "type": "address"
        },
        {
          "internalType": "uint256",
          "name": "tokenId",
          "type": "uint256"
        }
      ],
      "name": "safeTransferFrom",
      "outputs": [],
      "stateMutability": "nonpayable",
      "type": "function"
    },
    {
      "inputs": [
        {
          "internalType": "address",
          "name": "from",
          "type": "address"
        },
        {
          "internalType": "address",
          "name": "to",
          "type": "address"
        },
        {
          "internalType": "uint256",
          "name": "tokenId",
          "type": "uint256"
        },
        {
          "internalType": "bytes",
          "name": "_data",
          "type": "bytes"
        }
      ],
      "name": "safeTransferFrom",
      "outputs": [],
      "stateMutability": "nonpayable",
      "type": "function"
    },
    {
      "inputs": [
        {
          "internalType": "address",
          "name": "operator",
          "type": "address"
        },
        {
          "internalType": "bool",
          "name": "approved",
          "type": "bool"
        }
      ],
      "name": "setApprovalForAll",
      "outputs": [],
      "stateMutability": "nonpayable",
      "type": "function"
    },
    {
      "inputs": [
        {
          "internalType": "bytes4",
          "name": "interfaceId",
          "type": "bytes4"
        }
      ],
      "name": "supportsInterface",
      "outputs": [
        {
          "internalType": "bool",
          "name": "",
          "type": "bool"
        }
      ],
      "stateMutability": "view",
      "type": "function",
      "constant": true
    },
    {
      "inputs": [],
      "name": "symbol",
      "outputs": [
        {
          "internalType": "string",
          "name": "",
          "type": "string"
        }
      ],
      "stateMutability": "view",
      "type": "function",
      "constant": true
    },
    {
      "inputs": [
        {
          "internalType": "uint256",
          "name": "tokenId",
          "type": "uint256"
        }
      ],
      "name": "tokenURI",
      "outputs": [
        {
          "internalType": "string",
          "name": "",
          "type": "string"
        }
      ],
      "stateMutability": "view",
      "type": "function",
      "constant": true
    },
    {
      "inputs": [
        {
          "internalType": "address",
          "name": "from",
          "type": "address"
        },
        {
          "internalType": "address",
          "name": "to",
          "type": "address"
        },
        {
          "internalType": "uint256",
          "name": "tokenId",
          "type": "uint256"
        }
      ],
      "name": "transferFrom",
      "outputs": [],
      "stateMutability": "nonpayable",
      "type": "function"
    },
    {
      "inputs": [
        {
          "internalType": "address",
          "name": "_caller",
          "type": "address"
        },
        {
          "internalType": "address",
          "name": "_minter",
          "type": "address"
        }
      ],
      "name": "passMinterRole",
      "outputs": [
        {
          "internalType": "bool",
          "name": "",
          "type": "bool"
        }
      ],
      "stateMutability": "nonpayable",
      "type": "function"
    },
    {
      "inputs": [
        {
          "internalType": "address",
          "name": "_palgunamu",
          "type": "address"
        }
      ],
      "name": "setApproveAddress",
      "outputs": [],
      "stateMutability": "nonpayable",
      "type": "function"
    },
    {
      "inputs": [
        {
          "internalType": "uint256",
          "name": "_coordinateX",
          "type": "uint256"
        },
        {
          "internalType": "uint256",
          "name": "_coordinateY",
          "type": "uint256"
        },
        {
          "internalType": "string",
          "name": "_tokenURI",
          "type": "string"
        },
        {
          "internalType": "uint16",
          "name": "_count",
          "type": "uint16"
        }
      ],
      "name": "createHTR",
      "outputs": [],
      "stateMutability": "nonpayable",
      "type": "function"
    },
    {
      "inputs": [
        {
          "internalType": "uint256",
          "name": "_tokenId",
          "type": "uint256"
        }
      ],
      "name": "getHTR",
      "outputs": [
        {
          "internalType": "uint256",
          "name": "",
          "type": "uint256"
        },
        {
          "internalType": "address[]",
          "name": "",
          "type": "address[]"
        },
        {
          "internalType": "uint256",
          "name": "",
          "type": "uint256"
        },
        {
          "internalType": "uint256",
          "name": "",
          "type": "uint256"
        },
        {
          "internalType": "uint256",
          "name": "",
          "type": "uint256"
        },
        {
          "internalType": "string",
          "name": "",
          "type": "string"
        },
        {
          "internalType": "bool",
          "name": "",
          "type": "bool"
        }
      ],
      "stateMutability": "view",
      "type": "function",
      "constant": true
    },
    {
      "inputs": [],
      "name": "getHTRCount",
      "outputs": [
        {
          "internalType": "uint256",
          "name": "",
          "type": "uint256"
        }
      ],
      "stateMutability": "view",
      "type": "function",
      "constant": true
    },
    {
      "inputs": [
        {
          "internalType": "uint256",
          "name": "_tokenId",
          "type": "uint256"
        },
        {
          "internalType": "address",
          "name": "_to",
          "type": "address"
        }
      ],
      "name": "transferHTR",
      "outputs": [],
      "stateMutability": "nonpayable",
      "type": "function"
    },
    {
      "inputs": [
        {
          "internalType": "uint256",
          "name": "_tokenId",
          "type": "uint256"
        },
        {
          "internalType": "address",
          "name": "_to",
          "type": "address"
        }
      ],
      "name": "sendHTR",
      "outputs": [],
      "stateMutability": "nonpayable",
      "type": "function"
    }
  ],
  "bytecode": "0x60806040526000600a60146101000a81548160ff0219169083151502179055503480156200002c57600080fd5b506040518060400160405280600a81526020017f486f6c6f6d6954726565000000000000000000000000000000000000000000008152506040518060400160405280600381526020017f48545200000000000000000000000000000000000000000000000000000000008152508160009080519060200190620000b192919062000155565b508060019080519060200190620000ca92919062000155565b50505033600860006101000a81548173ffffffffffffffffffffffffffffffffffffffff021916908373ffffffffffffffffffffffffffffffffffffffff16021790555033600960006101000a81548173ffffffffffffffffffffffffffffffffffffffff021916908373ffffffffffffffffffffffffffffffffffffffff1602179055506200026a565b828054620001639062000205565b90600052602060002090601f016020900481019282620001875760008555620001d3565b82601f10620001a257805160ff1916838001178555620001d3565b82800160010185558215620001d3579182015b82811115620001d2578251825591602001919060010190620001b5565b5b509050620001e29190620001e6565b5090565b5b8082111562000201576000816000905550600101620001e7565b5090565b600060028204905060018216806200021e57607f821691505b602082108114156200023557620002346200023b565b5b50919050565b7f4e487b7100000000000000000000000000000000000000000000000000000000600052602260045260246000fd5b613aae806200027a6000396000f3fe608060405234801561001057600080fd5b506004361061012c5760003560e01c806391483ed1116100ad578063b88d4fde11610071578063b88d4fde14610359578063c87b56dd14610375578063e985e9c5146103a5578063efe25f1d146103d5578063fe3730be146103f15761012c565b806391483ed1146102b75780639468554b146102e757806395d89b4114610303578063a22cb46514610321578063b63a1d781461033d5761012c565b806342842e0e116100f457806342842e0e146101e75780635bb44daa146102035780636352211e146102215780636e1e4b7e1461025157806370a08231146102875761012c565b806301ffc9a71461013157806306fdde0314610161578063081812fc1461017f578063095ea7b3146101af57806323b872dd146101cb575b600080fd5b61014b60048036038101906101469190612619565b61040d565b60405161015891906131ef565b60405180910390f35b6101696104ef565b604051610176919061320a565b60405180910390f35b6101996004803603810190610194919061266b565b610581565b6040516101a69190613188565b60405180910390f35b6101c960048036038101906101c491906125dd565b610606565b005b6101e560048036038101906101e091906124d7565b61071e565b005b61020160048036038101906101fc91906124d7565b61077e565b005b61020b61079e565b60405161021891906134ec565b60405180910390f35b61023b6004803603810190610236919061266b565b6107af565b6040516102489190613188565b60405180910390f35b61026b6004803603810190610266919061266b565b610861565b60405161027e9796959493929190613530565b60405180910390f35b6102a1600480360381019061029c9190612472565b610a07565b6040516102ae91906134ec565b60405180910390f35b6102d160048036038101906102cc919061249b565b610abf565b6040516102de91906131ef565b60405180910390f35b61030160048036038101906102fc91906126d0565b610c5a565b005b61030b610eb4565b604051610318919061320a565b60405180910390f35b61033b600480360381019061033691906125a1565b610f46565b005b61035760048036038101906103529190612694565b6110c7565b005b610373600480360381019061036e9190612526565b611188565b005b61038f600480360381019061038a919061266b565b6111ea565b60405161039c919061320a565b60405180910390f35b6103bf60048036038101906103ba919061249b565b61133c565b6040516103cc91906131ef565b60405180910390f35b6103ef60048036038101906103ea9190612694565b6113d0565b005b61040b60048036038101906104069190612472565b611418565b005b60007f80ac58cd000000000000000000000000000000000000000000000000000000007bffffffffffffffffffffffffffffffffffffffffffffffffffffffff1916827bffffffffffffffffffffffffffffffffffffffffffffffffffffffff191614806104d857507f5b5e139f000000000000000000000000000000000000000000000000000000007bffffffffffffffffffffffffffffffffffffffffffffffffffffffff1916827bffffffffffffffffffffffffffffffffffffffffffffffffffffffff1916145b806104e857506104e7826114ec565b5b9050919050565b6060600080546104fe9061388c565b80601f016020809104026020016040519081016040528092919081815260200182805461052a9061388c565b80156105775780601f1061054c57610100808354040283529160200191610577565b820191906000526020600020905b81548152906001019060200180831161055a57829003601f168201915b5050505050905090565b600061058c82611556565b6105cb576040517f08c379a00000000000000000000000000000000000000000000000000000000081526004016105c2906133ec565b60405180910390fd5b6004600083815260200190815260200160002060009054906101000a900473ffffffffffffffffffffffffffffffffffffffff169050919050565b6000610611826107af565b90508073ffffffffffffffffffffffffffffffffffffffff168373ffffffffffffffffffffffffffffffffffffffff161415610682576040517f08c379a00000000000000000000000000000000000000000000000000000000081526004016106799061344c565b60405180910390fd5b8073ffffffffffffffffffffffffffffffffffffffff166106a16115c2565b73ffffffffffffffffffffffffffffffffffffffff1614806106d057506106cf816106ca6115c2565b61133c565b5b61070f576040517f08c379a00000000000000000000000000000000000000000000000000000000081526004016107069061330c565b60405180910390fd5b61071983836115ca565b505050565b61072f6107296115c2565b82611683565b61076e576040517f08c379a00000000000000000000000000000000000000000000000000000000081526004016107659061348c565b60405180910390fd5b610779838383611761565b505050565b61079983838360405180602001604052806000815250611188565b505050565b60006107aa6007611817565b905090565b6000806002600084815260200190815260200160002060009054906101000a900473ffffffffffffffffffffffffffffffffffffffff169050600073ffffffffffffffffffffffffffffffffffffffff168173ffffffffffffffffffffffffffffffffffffffff161415610858576040517f08c379a000000000000000000000000000000000000000000000000000000000815260040161084f9061334c565b60405180910390fd5b80915050919050565b6000606060008060006060600080600b60008a81526020019081526020016000206000015414156108c7576040517f08c379a00000000000000000000000000000000000000000000000000000000081526004016108be9061328c565b60405180910390fd5b600b600089815260200190815260200160002060000154600b60008a8152602001908152602001600020600101600b60008b815260200190815260200160002060020154600b60008c815260200190815260200160002060030154600b60008d8152602001908152602001600020600401546109428d6111ea565b600b60008f815260200190815260200160002060050160009054906101000a900460ff16858054806020026020016040519081016040528092919081815260200182805480156109e757602002820191906000526020600020905b8160009054906101000a900473ffffffffffffffffffffffffffffffffffffffff1673ffffffffffffffffffffffffffffffffffffffff168152602001906001019080831161099d575b505050505095509650965096509650965096509650919395979092949650565b60008073ffffffffffffffffffffffffffffffffffffffff168273ffffffffffffffffffffffffffffffffffffffff161415610a78576040517f08c379a0000000000000000000000000000000000000000000000000000000008152600401610a6f9061332c565b60405180910390fd5b600360008373ffffffffffffffffffffffffffffffffffffffff1673ffffffffffffffffffffffffffffffffffffffff168152602001908152602001600020549050919050565b6000801515600a60149054906101000a900460ff16151514610b16576040517f08c379a0000000000000000000000000000000000000000000000000000000008152600401610b0d906134cc565b60405180910390fd5b600860009054906101000a900473ffffffffffffffffffffffffffffffffffffffff1673ffffffffffffffffffffffffffffffffffffffff168373ffffffffffffffffffffffffffffffffffffffff1614610ba6576040517f08c379a0000000000000000000000000000000000000000000000000000000008152600401610b9d906134ac565b60405180910390fd5b81600860006101000a81548173ffffffffffffffffffffffffffffffffffffffff021916908373ffffffffffffffffffffffffffffffffffffffff1602179055506001600a60146101000a81548160ff0219169083151502179055503373ffffffffffffffffffffffffffffffffffffffff167f3b0007eb941cf645526cbb3a4fdaecda9d28ce4843167d9263b536a1f1edc0f683604051610c489190613188565b60405180910390a26001905092915050565b600960009054906101000a900473ffffffffffffffffffffffffffffffffffffffff1673ffffffffffffffffffffffffffffffffffffffff163373ffffffffffffffffffffffffffffffffffffffff1614610cea576040517f08c379a0000000000000000000000000000000000000000000000000000000008152600401610ce19061322c565b60405180910390fd5b60005b8161ffff16811015610ead57610d036007611825565b6000610d0f6007611817565b9050610d1b338261183b565b610d258185611859565b606060006040518060c0016040528084815260200183815260200142815260200189815260200188815260200160011515815250905080600b6000858152602001908152602001600020600082015181600001556020820151816001019080519060200190610d959291906121f7565b5060408201518160020155606082015181600301556080820151816004015560a08201518160050160006101000a81548160ff021916908315150217905550905050600b6000848152602001908152602001600020600101339080600181540180825580915050600190039060005260206000200160009091909190916101000a81548173ffffffffffffffffffffffffffffffffffffffff021916908373ffffffffffffffffffffffffffffffffffffffff160217905550610e57836118cd565b7f71bee995547e6860e3fe376258137bbd9b60597b2ad22a3526c266ee67344a9e838989426001604051610e8f9594939291906135ad565b60405180910390a15050508080610ea5906138be565b915050610ced565b5050505050565b606060018054610ec39061388c565b80601f0160208091040260200160405190810160405280929190818152602001828054610eef9061388c565b8015610f3c5780601f10610f1157610100808354040283529160200191610f3c565b820191906000526020600020905b815481529060010190602001808311610f1f57829003601f168201915b5050505050905090565b610f4e6115c2565b73ffffffffffffffffffffffffffffffffffffffff168273ffffffffffffffffffffffffffffffffffffffff161415610fbc576040517f08c379a0000000000000000000000000000000000000000000000000000000008152600401610fb3906132cc565b60405180910390fd5b8060056000610fc96115c2565b73ffffffffffffffffffffffffffffffffffffffff1673ffffffffffffffffffffffffffffffffffffffff16815260200190815260200160002060008473ffffffffffffffffffffffffffffffffffffffff1673ffffffffffffffffffffffffffffffffffffffff16815260200190815260200160002060006101000a81548160ff0219169083151502179055508173ffffffffffffffffffffffffffffffffffffffff166110766115c2565b73ffffffffffffffffffffffffffffffffffffffff167f17307eab39ab6107e8899845ad3d59bd9653f200f220920489ca2b5937696c31836040516110bb91906131ef565b60405180910390a35050565b600860009054906101000a900473ffffffffffffffffffffffffffffffffffffffff1673ffffffffffffffffffffffffffffffffffffffff163373ffffffffffffffffffffffffffffffffffffffff1614611157576040517f08c379a000000000000000000000000000000000000000000000000000000000815260040161114e9061346c565b60405180910390fd5b611184600960009054906101000a900473ffffffffffffffffffffffffffffffffffffffff16828461077e565b5050565b6111996111936115c2565b83611683565b6111d8576040517f08c379a00000000000000000000000000000000000000000000000000000000081526004016111cf9061348c565b60405180910390fd5b6111e4848484846118fc565b50505050565b60606111f582611556565b611234576040517f08c379a000000000000000000000000000000000000000000000000000000000815260040161122b906133cc565b60405180910390fd5b60006006600084815260200190815260200160002080546112549061388c565b80601f01602080910402602001604051908101604052809291908181526020018280546112809061388c565b80156112cd5780601f106112a2576101008083540402835291602001916112cd565b820191906000526020600020905b8154815290600101906020018083116112b057829003601f168201915b5050505050905060006112de611958565b90506000815114156112f4578192505050611337565b600082511115611329578082604051602001611311929190613164565b60405160208183030381529060405292505050611337565b6113328461196f565b925050505b919050565b6000600560008473ffffffffffffffffffffffffffffffffffffffff1673ffffffffffffffffffffffffffffffffffffffff16815260200190815260200160002060008373ffffffffffffffffffffffffffffffffffffffff1673ffffffffffffffffffffffffffffffffffffffff16815260200190815260200160002060009054906101000a900460ff16905092915050565b6113db33828461077e565b7fee042f07da07191e776ffd461b48b14d7a24edc5d988f1102a264c7b69a7893f828260405161140c929190613507565b60405180910390a15050565b600860009054906101000a900473ffffffffffffffffffffffffffffffffffffffff1673ffffffffffffffffffffffffffffffffffffffff163373ffffffffffffffffffffffffffffffffffffffff16146114a8576040517f08c379a000000000000000000000000000000000000000000000000000000000815260040161149f9061338c565b60405180910390fd5b80600a60006101000a81548173ffffffffffffffffffffffffffffffffffffffff021916908373ffffffffffffffffffffffffffffffffffffffff16021790555050565b60007f01ffc9a7000000000000000000000000000000000000000000000000000000007bffffffffffffffffffffffffffffffffffffffffffffffffffffffff1916827bffffffffffffffffffffffffffffffffffffffffffffffffffffffff1916149050919050565b60008073ffffffffffffffffffffffffffffffffffffffff166002600084815260200190815260200160002060009054906101000a900473ffffffffffffffffffffffffffffffffffffffff1673ffffffffffffffffffffffffffffffffffffffff1614159050919050565b600033905090565b816004600083815260200190815260200160002060006101000a81548173ffffffffffffffffffffffffffffffffffffffff021916908373ffffffffffffffffffffffffffffffffffffffff160217905550808273ffffffffffffffffffffffffffffffffffffffff1661163d836107af565b73ffffffffffffffffffffffffffffffffffffffff167f8c5be1e5ebec7d5bd14f71427d1e84f3dd0314c0f7b2291e5b200ac8c7c3b92560405160405180910390a45050565b600061168e82611556565b6116cd576040517f08c379a00000000000000000000000000000000000000000000000000000000081526004016116c4906132ec565b60405180910390fd5b60006116d8836107af565b90508073ffffffffffffffffffffffffffffffffffffffff168473ffffffffffffffffffffffffffffffffffffffff16148061174757508373ffffffffffffffffffffffffffffffffffffffff1661172f84610581565b73ffffffffffffffffffffffffffffffffffffffff16145b806117585750611757818561133c565b5b91505092915050565b61176c838383611a16565b600b6000828152602001908152602001600020600101829080600181540180825580915050600190039060005260206000200160009091909190916101000a81548173ffffffffffffffffffffffffffffffffffffffff021916908373ffffffffffffffffffffffffffffffffffffffff1602179055506000600b600083815260200190815260200160002060050160006101000a81548160ff021916908315150217905550505050565b600081600001549050919050565b6001816000016000828254019250508190555050565b611855828260405180602001604052806000815250611c72565b5050565b61186282611556565b6118a1576040517f08c379a00000000000000000000000000000000000000000000000000000000081526004016118989061336c565b60405180910390fd5b806006600084815260200190815260200160002090805190602001906118c8929190612281565b505050565b6118f9600a60009054906101000a900473ffffffffffffffffffffffffffffffffffffffff1682610606565b50565b611907848484611761565b61191384848484611ccd565b611952576040517f08c379a00000000000000000000000000000000000000000000000000000000081526004016119499061324c565b60405180910390fd5b50505050565b606060405180602001604052806000815250905090565b606061197a82611556565b6119b9576040517f08c379a00000000000000000000000000000000000000000000000000000000081526004016119b09061342c565b60405180910390fd5b60006119c3611958565b905060008151116119e35760405180602001604052806000815250611a0e565b806119ed84611e64565b6040516020016119fe929190613164565b6040516020818303038152906040525b915050919050565b8273ffffffffffffffffffffffffffffffffffffffff16611a36826107af565b73ffffffffffffffffffffffffffffffffffffffff1614611a8c576040517f08c379a0000000000000000000000000000000000000000000000000000000008152600401611a839061340c565b60405180910390fd5b600073ffffffffffffffffffffffffffffffffffffffff168273ffffffffffffffffffffffffffffffffffffffff161415611afc576040517f08c379a0000000000000000000000000000000000000000000000000000000008152600401611af3906132ac565b60405180910390fd5b611b07838383612011565b611b126000826115ca565b6001600360008573ffffffffffffffffffffffffffffffffffffffff1673ffffffffffffffffffffffffffffffffffffffff1681526020019081526020016000206000828254611b629190613794565b925050819055506001600360008473ffffffffffffffffffffffffffffffffffffffff1673ffffffffffffffffffffffffffffffffffffffff1681526020019081526020016000206000828254611bb9919061370d565b92505081905550816002600083815260200190815260200160002060006101000a81548173ffffffffffffffffffffffffffffffffffffffff021916908373ffffffffffffffffffffffffffffffffffffffff160217905550808273ffffffffffffffffffffffffffffffffffffffff168473ffffffffffffffffffffffffffffffffffffffff167fddf252ad1be2c89b69c2b068fc378daa952ba7f163c4a11628f55a4df523b3ef60405160405180910390a4505050565b611c7c8383612016565b611c896000848484611ccd565b611cc8576040517f08c379a0000000000000000000000000000000000000000000000000000000008152600401611cbf9061324c565b60405180910390fd5b505050565b6000611cee8473ffffffffffffffffffffffffffffffffffffffff166121e4565b15611e57578373ffffffffffffffffffffffffffffffffffffffff1663150b7a02611d176115c2565b8786866040518563ffffffff1660e01b8152600401611d3994939291906131a3565b602060405180830381600087803b158015611d5357600080fd5b505af1925050508015611d8457506040513d601f19601f82011682018060405250810190611d819190612642565b60015b611e07573d8060008114611db4576040519150601f19603f3d011682016040523d82523d6000602084013e611db9565b606091505b50600081511415611dff576040517f08c379a0000000000000000000000000000000000000000000000000000000008152600401611df69061324c565b60405180910390fd5b805181602001fd5b63150b7a0260e01b7bffffffffffffffffffffffffffffffffffffffffffffffffffffffff1916817bffffffffffffffffffffffffffffffffffffffffffffffffffffffff191614915050611e5c565b600190505b949350505050565b60606000821415611eac576040518060400160405280600181526020017f3000000000000000000000000000000000000000000000000000000000000000815250905061200c565b600082905060005b60008214611ede578080611ec7906138be565b915050600a82611ed79190613763565b9150611eb4565b60008167ffffffffffffffff811115611f20577f4e487b7100000000000000000000000000000000000000000000000000000000600052604160045260246000fd5b6040519080825280601f01601f191660200182016040528015611f525781602001600182028036833780820191505090505b5090505b6000851461200557600182611f6b9190613794565b9150600a85611f7a9190613907565b6030611f86919061370d565b60f81b818381518110611fc2577f4e487b7100000000000000000000000000000000000000000000000000000000600052603260045260246000fd5b60200101907effffffffffffffffffffffffffffffffffffffffffffffffffffffffffffff1916908160001a905350600a85611ffe9190613763565b9450611f56565b8093505050505b919050565b505050565b600073ffffffffffffffffffffffffffffffffffffffff168273ffffffffffffffffffffffffffffffffffffffff161415612086576040517f08c379a000000000000000000000000000000000000000000000000000000000815260040161207d906133ac565b60405180910390fd5b61208f81611556565b156120cf576040517f08c379a00000000000000000000000000000000000000000000000000000000081526004016120c69061326c565b60405180910390fd5b6120db60008383612011565b6001600360008473ffffffffffffffffffffffffffffffffffffffff1673ffffffffffffffffffffffffffffffffffffffff168152602001908152602001600020600082825461212b919061370d565b92505081905550816002600083815260200190815260200160002060006101000a81548173ffffffffffffffffffffffffffffffffffffffff021916908373ffffffffffffffffffffffffffffffffffffffff160217905550808273ffffffffffffffffffffffffffffffffffffffff16600073ffffffffffffffffffffffffffffffffffffffff167fddf252ad1be2c89b69c2b068fc378daa952ba7f163c4a11628f55a4df523b3ef60405160405180910390a45050565b600080823b905060008111915050919050565b828054828255906000526020600020908101928215612270579160200282015b8281111561226f5782518260006101000a81548173ffffffffffffffffffffffffffffffffffffffff021916908373ffffffffffffffffffffffffffffffffffffffff16021790555091602001919060010190612217565b5b50905061227d9190612307565b5090565b82805461228d9061388c565b90600052602060002090601f0160209004810192826122af57600085556122f6565b82601f106122c857805160ff19168380011785556122f6565b828001600101855582156122f6579182015b828111156122f55782518255916020019190600101906122da565b5b5090506123039190612307565b5090565b5b80821115612320576000816000905550600101612308565b5090565b600061233761233284613631565b613600565b90508281526020810184848401111561234f57600080fd5b61235a84828561384a565b509392505050565b600061237561237084613661565b613600565b90508281526020810184848401111561238d57600080fd5b61239884828561384a565b509392505050565b6000813590506123af81613a05565b92915050565b6000813590506123c481613a1c565b92915050565b6000813590506123d981613a33565b92915050565b6000815190506123ee81613a33565b92915050565b600082601f83011261240557600080fd5b8135612415848260208601612324565b91505092915050565b600082601f83011261242f57600080fd5b813561243f848260208601612362565b91505092915050565b60008135905061245781613a4a565b92915050565b60008135905061246c81613a61565b92915050565b60006020828403121561248457600080fd5b6000612492848285016123a0565b91505092915050565b600080604083850312156124ae57600080fd5b60006124bc858286016123a0565b92505060206124cd858286016123a0565b9150509250929050565b6000806000606084860312156124ec57600080fd5b60006124fa868287016123a0565b935050602061250b868287016123a0565b925050604061251c8682870161245d565b9150509250925092565b6000806000806080858703121561253c57600080fd5b600061254a878288016123a0565b945050602061255b878288016123a0565b935050604061256c8782880161245d565b925050606085013567ffffffffffffffff81111561258957600080fd5b612595878288016123f4565b91505092959194509250565b600080604083850312156125b457600080fd5b60006125c2858286016123a0565b92505060206125d3858286016123b5565b9150509250929050565b600080604083850312156125f057600080fd5b60006125fe858286016123a0565b925050602061260f8582860161245d565b9150509250929050565b60006020828403121561262b57600080fd5b6000612639848285016123ca565b91505092915050565b60006020828403121561265457600080fd5b6000612662848285016123df565b91505092915050565b60006020828403121561267d57600080fd5b600061268b8482850161245d565b91505092915050565b600080604083850312156126a757600080fd5b60006126b58582860161245d565b92505060206126c6858286016123a0565b9150509250929050565b600080600080608085870312156126e657600080fd5b60006126f48782880161245d565b94505060206127058782880161245d565b935050604085013567ffffffffffffffff81111561272257600080fd5b61272e8782880161241e565b925050606061273f87828801612448565b91505092959194509250565b60006127578383612763565b60208301905092915050565b61276c816137c8565b82525050565b61277b816137c8565b82525050565b600061278c826136a1565b61279681856136cf565b93506127a183613691565b8060005b838110156127d25781516127b9888261274b565b97506127c4836136c2565b9250506001810190506127a5565b5085935050505092915050565b6127e8816137da565b82525050565b60006127f9826136ac565b61280381856136e0565b9350612813818560208601613859565b61281c816139f4565b840191505092915050565b6000612832826136b7565b61283c81856136f1565b935061284c818560208601613859565b612855816139f4565b840191505092915050565b600061286b826136b7565b6128758185613702565b9350612885818560208601613859565b80840191505092915050565b600061289e6043836136f1565b91507f5b204552524f52205d205065726d697373696f6e2044656e696564203a206d7360008301527f672e73656e64657220646f6573206e6f7420686176652063726561746f72207260208301527f6f6c6500000000000000000000000000000000000000000000000000000000006040830152606082019050919050565b600061292a6032836136f1565b91507f4552433732313a207472616e7366657220746f206e6f6e20455243373231526560008301527f63656976657220696d706c656d656e74657200000000000000000000000000006020830152604082019050919050565b6000612990601c836136f1565b91507f4552433732313a20746f6b656e20616c7265616479206d696e746564000000006000830152602082019050919050565b60006129d0601f836136f1565b91507f5b204552524f52205d203a2048545220646f6573206e6f7420657869737421006000830152602082019050919050565b6000612a106024836136f1565b91507f4552433732313a207472616e7366657220746f20746865207a65726f2061646460008301527f72657373000000000000000000000000000000000000000000000000000000006020830152604082019050919050565b6000612a766019836136f1565b91507f4552433732313a20617070726f766520746f2063616c6c6572000000000000006000830152602082019050919050565b6000612ab6602c836136f1565b91507f4552433732313a206f70657261746f7220717565727920666f72206e6f6e657860008301527f697374656e7420746f6b656e00000000000000000000000000000000000000006020830152604082019050919050565b6000612b1c6038836136f1565b91507f4552433732313a20617070726f76652063616c6c6572206973206e6f74206f7760008301527f6e6572206e6f7220617070726f76656420666f7220616c6c00000000000000006020830152604082019050919050565b6000612b82602a836136f1565b91507f4552433732313a2062616c616e636520717565727920666f7220746865207a6560008301527f726f2061646472657373000000000000000000000000000000000000000000006020830152604082019050919050565b6000612be86029836136f1565b91507f4552433732313a206f776e657220717565727920666f72206e6f6e657869737460008301527f656e7420746f6b656e00000000000000000000000000000000000000000000006020830152604082019050919050565b6000612c4e602e836136f1565b91507f45524337323155524953746f726167653a2055524920736574206f66206e6f6e60008301527f6578697374656e7420746f6b656e0000000000000000000000000000000000006020830152604082019050919050565b6000612cb46047836136f1565b91507f5b204552524f52205d205065726d697373696f6e2044656e696564203a206d7360008301527f672e73656e64657220646f6573206e6f74206861766520726f6c65207472656560208301527f617070726f7665000000000000000000000000000000000000000000000000006040830152606082019050919050565b6000612d406020836136f1565b91507f4552433732313a206d696e7420746f20746865207a65726f20616464726573736000830152602082019050919050565b6000612d806031836136f1565b91507f45524337323155524953746f726167653a2055524920717565727920666f722060008301527f6e6f6e6578697374656e7420746f6b656e0000000000000000000000000000006020830152604082019050919050565b6000612de6602c836136f1565b91507f4552433732313a20617070726f76656420717565727920666f72206e6f6e657860008301527f697374656e7420746f6b656e00000000000000000000000000000000000000006020830152604082019050919050565b6000612e4c6029836136f1565b91507f4552433732313a207472616e73666572206f6620746f6b656e2074686174206960008301527f73206e6f74206f776e00000000000000000000000000000000000000000000006020830152604082019050919050565b6000612eb2602f836136f1565b91507f4552433732314d657461646174613a2055524920717565727920666f72206e6f60008301527f6e6578697374656e7420746f6b656e00000000000000000000000000000000006020830152604082019050919050565b6000612f186021836136f1565b91507f4552433732313a20617070726f76616c20746f2063757272656e74206f776e6560008301527f72000000000000000000000000000000000000000000000000000000000000006020830152604082019050919050565b6000612f7e6044836136f1565b91507f5b204552524f52205d205065726d697373696f6e2044656e696564203a206d7360008301527f672e73656e64657220646f6573206e6f742068617665207472616e736665722060208301527f726f6c65000000000000000000000000000000000000000000000000000000006040830152606082019050919050565b600061300a6031836136f1565b91507f4552433732313a207472616e736665722063616c6c6572206973206e6f74206f60008301527f776e6572206e6f7220617070726f7665640000000000000000000000000000006020830152604082019050919050565b6000613070604f836136f1565b91507f5b204552524f52205d205065726d697373696f6e2044656e696564203a206f6e60008301527f6c79206f776e65722063616e206368616e67652070617373206d696e7465722060208301527f726f6c6520747265656d696e74657200000000000000000000000000000000006040830152606082019050919050565b60006130fc6031836136f1565b91507f5b204552524f52205d205065726d697373696f6e2044656e696564203a20616c60008301527f726561647920706173736564206f6e63650000000000000000000000000000006020830152604082019050919050565b61315e81613840565b82525050565b60006131708285612860565b915061317c8284612860565b91508190509392505050565b600060208201905061319d6000830184612772565b92915050565b60006080820190506131b86000830187612772565b6131c56020830186612772565b6131d26040830185613155565b81810360608301526131e481846127ee565b905095945050505050565b600060208201905061320460008301846127df565b92915050565b600060208201905081810360008301526132248184612827565b905092915050565b6000602082019050818103600083015261324581612891565b9050919050565b600060208201905081810360008301526132658161291d565b9050919050565b6000602082019050818103600083015261328581612983565b9050919050565b600060208201905081810360008301526132a5816129c3565b9050919050565b600060208201905081810360008301526132c581612a03565b9050919050565b600060208201905081810360008301526132e581612a69565b9050919050565b6000602082019050818103600083015261330581612aa9565b9050919050565b6000602082019050818103600083015261332581612b0f565b9050919050565b6000602082019050818103600083015261334581612b75565b9050919050565b6000602082019050818103600083015261336581612bdb565b9050919050565b6000602082019050818103600083015261338581612c41565b9050919050565b600060208201905081810360008301526133a581612ca7565b9050919050565b600060208201905081810360008301526133c581612d33565b9050919050565b600060208201905081810360008301526133e581612d73565b9050919050565b6000602082019050818103600083015261340581612dd9565b9050919050565b6000602082019050818103600083015261342581612e3f565b9050919050565b6000602082019050818103600083015261344581612ea5565b9050919050565b6000602082019050818103600083015261346581612f0b565b9050919050565b6000602082019050818103600083015261348581612f71565b9050919050565b600060208201905081810360008301526134a581612ffd565b9050919050565b600060208201905081810360008301526134c581613063565b9050919050565b600060208201905081810360008301526134e5816130ef565b9050919050565b60006020820190506135016000830184613155565b92915050565b600060408201905061351c6000830185613155565b6135296020830184612772565b9392505050565b600060e082019050613545600083018a613155565b81810360208301526135578189612781565b90506135666040830188613155565b6135736060830187613155565b6135806080830186613155565b81810360a08301526135928185612827565b90506135a160c08301846127df565b98975050505050505050565b600060a0820190506135c26000830188613155565b6135cf6020830187613155565b6135dc6040830186613155565b6135e96060830185613155565b6135f660808301846127df565b9695505050505050565b6000604051905081810181811067ffffffffffffffff82111715613627576136266139c5565b5b8060405250919050565b600067ffffffffffffffff82111561364c5761364b6139c5565b5b601f19601f8301169050602081019050919050565b600067ffffffffffffffff82111561367c5761367b6139c5565b5b601f19601f8301169050602081019050919050565b6000819050602082019050919050565b600081519050919050565b600081519050919050565b600081519050919050565b6000602082019050919050565b600082825260208201905092915050565b600082825260208201905092915050565b600082825260208201905092915050565b600081905092915050565b600061371882613840565b915061372383613840565b9250827fffffffffffffffffffffffffffffffffffffffffffffffffffffffffffffffff0382111561375857613757613938565b5b828201905092915050565b600061376e82613840565b915061377983613840565b92508261378957613788613967565b5b828204905092915050565b600061379f82613840565b91506137aa83613840565b9250828210156137bd576137bc613938565b5b828203905092915050565b60006137d382613820565b9050919050565b60008115159050919050565b60007fffffffff0000000000000000000000000000000000000000000000000000000082169050919050565b600061ffff82169050919050565b600073ffffffffffffffffffffffffffffffffffffffff82169050919050565b6000819050919050565b82818337600083830152505050565b60005b8381101561387757808201518184015260208101905061385c565b83811115613886576000848401525b50505050565b600060028204905060018216806138a457607f821691505b602082108114156138b8576138b7613996565b5b50919050565b60006138c982613840565b91507fffffffffffffffffffffffffffffffffffffffffffffffffffffffffffffffff8214156138fc576138fb613938565b5b600182019050919050565b600061391282613840565b915061391d83613840565b92508261392d5761392c613967565b5b828206905092915050565b7f4e487b7100000000000000000000000000000000000000000000000000000000600052601160045260246000fd5b7f4e487b7100000000000000000000000000000000000000000000000000000000600052601260045260246000fd5b7f4e487b7100000000000000000000000000000000000000000000000000000000600052602260045260246000fd5b7f4e487b7100000000000000000000000000000000000000000000000000000000600052604160045260246000fd5b6000601f19601f8301169050919050565b613a0e816137c8565b8114613a1957600080fd5b50565b613a25816137da565b8114613a3057600080fd5b50565b613a3c816137e6565b8114613a4757600080fd5b50565b613a5381613812565b8114613a5e57600080fd5b50565b613a6a81613840565b8114613a7557600080fd5b5056fea2646970667358221220e66fd13ed03dc30ad607d596331871e7a217c59f345418b579a786b71436f00a64736f6c63430008000033",
  "immutableReferences": {},
  "source": "// SPDX-License-Identifier: MIT\npragma solidity ^0.8.0;\n\n\nimport \"@openzeppelin/contracts/token/ERC721/extensions/ERC721URIStorage.sol\";\nimport \"@openzeppelin/contracts/utils/Counters.sol\";\n\n\ncontract TreeFactory is ERC721URIStorage{\n    using Counters for Counters.Counter;\n    Counters.Counter private _tokenIds;\n    \n    address private minter;\n    address private creator;\n    address private palgunamu;\n    bool private roleCount = false;\n\n    mapping (uint256 => HTRData) private _htrlist;\n    \n    event MinterChanged(address indexed from, address to);\n    event CreatedHTR(uint256 newItemId, uint256 coordinateX, uint256 coordinateY, uint256 timestamp, bool buyable);\n    event SendedHTR(uint256 tokenId, address to);\n\n    struct HTRData {\n        uint256 tokenId;            //  id: 1 \n        address[] ownerHistory;     //  :     \n        uint256 timestamp;          //   \n        uint256 coordinateX;        \n        uint256 coordinateY;\n        bool buyable;\n    }\n\n    constructor() ERC721(\"HolomiTree\", \"HTR\") {\n        minter = msg.sender;\n        creator = msg.sender;\n    }\n    \n    function passMinterRole(address _caller, address _minter) public returns(bool) {\n        require(roleCount == false, \"[ ERROR ] Permission Denied : already passed once\");\n        require(_caller == minter, \"[ ERROR ] Permission Denied : only owner can change pass minter role treeminter\");\n        minter = _minter; //transfer minting role to palgunamu\n        roleCount = true;\n        emit MinterChanged(msg.sender, _minter);\n        \n        return true;\n    }\n    \n    function setApproveAddress(address _palgunamu) public{\n        require(msg.sender == minter, \"[ ERROR ] Permission Denied : msg.sender does not have role treeapprove\");    //only palgunamu can setApprove\n        palgunamu = _palgunamu;\n    }\n    \n    function _setApprove(uint256 _tokenId) private {\n        approve(palgunamu, _tokenId);\n    }\n\n    function createHTR(uint256 _coordinateX, uint256 _coordinateY, string memory _tokenURI, uint16 _count) public {\n        require(msg.sender == creator, \"[ ERROR ] Permission Denied : msg.sender does not have creator role\");\n        for(uint i = 0; i < _count; i++){\n            _tokenIds.increment();\n    \n            uint256 newItemId = _tokenIds.current();\n            _safeMint(msg.sender, newItemId);\n            _setTokenURI(newItemId, _tokenURI);\n            \n            address[] memory ownerHistory;\n            \n            HTRData memory newHTRData = HTRData({\n                tokenId : newItemId,\n                ownerHistory : ownerHistory,\n                timestamp : block.timestamp,\n                coordinateX: _coordinateX,\n                coordinateY: _coordinateY,\n                buyable: true\n            });\n            \n            _htrlist[newItemId] = newHTRData;\n            _htrlist[newItemId].ownerHistory.push(msg.sender);\n            \n            _setApprove(newItemId);\n    \n            emit CreatedHTR(newItemId, _coordinateX, _coordinateY, block.timestamp, true);\n        }\n    }\n    \n    function getHTR(uint _tokenId) public view returns(uint256, address[] memory, uint256, uint256, uint256, string memory, bool){\n        require(_htrlist[_tokenId].tokenId != 0, \"[ ERROR ] : HTR does not exist!\");\n        return (\n            _htrlist[_tokenId].tokenId,\n            _htrlist[_tokenId].ownerHistory,\n            _htrlist[_tokenId].timestamp,\n            _htrlist[_tokenId].coordinateX,\n            _htrlist[_tokenId].coordinateY,\n            tokenURI(_tokenId),\n            _htrlist[_tokenId].buyable\n        );\n    }\n    \n    function getHTRCount() public view returns(uint256){\n        return(_tokenIds.current());\n    }\n    \n    function transferHTR(uint256 _tokenId, address _to) public {\n        require(msg.sender == minter, \"[ ERROR ] Permission Denied : msg.sender does not have transfer role\");\n        safeTransferFrom(creator, _to, _tokenId);\n    }\n    \n    function sendHTR(uint256 _tokenId, address _to) public {\n        safeTransferFrom(msg.sender, _to, _tokenId);\n        emit SendedHTR(_tokenId, _to);\n    }\n    \n    function _transfer(address from, address to, uint256 tokenId) internal override{\n        super._transfer(from, to, tokenId);\n        _htrlist[tokenId].ownerHistory.push(to);    //         \n        _htrlist[tokenId].buyable = false;\n    }\n}",
  "sourcePath": "/home/ubuntu/dapp/89namu/solidity/contracts/TreeFactory.sol",
  "compiler": {
    "name": "solc",
    "version": "0.8.0+commit.c7dfd78e.Emscripten.clang"
  },
  "schemaVersion": "3.4.3",
  "updatedAt": "2021-08-31T08:04:18.969Z",
  "networkType": "ethereum",
  "devdoc": {
    "kind": "dev",
    "methods": {
      "approve(address,uint256)": {
        "details": "See {IERC721-approve}."
      },
      "balanceOf(address)": {
        "details": "See {IERC721-balanceOf}."
      },
      "getApproved(uint256)": {
        "details": "See {IERC721-getApproved}."
      },
      "isApprovedForAll(address,address)": {
        "details": "See {IERC721-isApprovedForAll}."
      },
      "name()": {
        "details": "See {IERC721Metadata-name}."
      },
      "ownerOf(uint256)": {
        "details": "See {IERC721-ownerOf}."
      },
      "safeTransferFrom(address,address,uint256)": {
        "details": "See {IERC721-safeTransferFrom}."
      },
      "safeTransferFrom(address,address,uint256,bytes)": {
        "details": "See {IERC721-safeTransferFrom}."
      },
      "setApprovalForAll(address,bool)": {
        "details": "See {IERC721-setApprovalForAll}."
      },
      "supportsInterface(bytes4)": {
        "details": "See {IERC165-supportsInterface}."
      },
      "symbol()": {
        "details": "See {IERC721Metadata-symbol}."
      },
      "tokenURI(uint256)": {
        "details": "See {IERC721Metadata-tokenURI}."
      },
      "transferFrom(address,address,uint256)": {
        "details": "See {IERC721-transferFrom}."
      }
    },
    "version": 1
  },
  "userdoc": {
    "kind": "user",
    "methods": {},
    "version": 1
  }
}